{
  "transactions": [
    {
      "hash": "0xde131b317561a487ed1384a675aee647059063fe4ff975a4ebbbae98e8a759cd",
      "transactionType": "CALL",
      "contractName": null,
      "contractAddress": "0xfff9976782d46cc05630d1f6ebab18b2324d6b14",
      "function": "approve(address,uint256)",
      "arguments": [
        "0x000000000022D473030F116dDEE9F6B43aC78BA3",
        "115792089237316195423570985008687907853269984665640564039457584007913129639935"
      ],
      "transaction": {
        "from": "0x3324533837e165829b8e581b4f471125c9d8c66a",
        "to": "0xfff9976782d46cc05630d1f6ebab18b2324d6b14",
        "gas": "0x8e76",
        "value": "0x0",
        "input": "0x095ea7b3000000000000000000000000000000000022d473030f116ddee9f6b43ac78ba3ffffffffffffffffffffffffffffffffffffffffffffffffffffffffffffffff",
        "nonce": "0x37",
        "chainId": "0xaa36a7"
      },
      "additionalContracts": [],
      "isFixedGasLimit": false
    },
    {
      "hash": "0x733ef4753fc69bb190cd9a63c25f08fcbfc1728cde397df284b13bf908dabc46",
      "transactionType": "CALL",
      "contractName": null,
      "contractAddress": "0xd98f9971773045735c62cd8f1a70047f81b9a468",
      "function": "approve(address,uint256)",
      "arguments": [
        "0x000000000022D473030F116dDEE9F6B43aC78BA3",
        "115792089237316195423570985008687907853269984665640564039457584007913129639935"
      ],
      "transaction": {
        "from": "0x3324533837e165829b8e581b4f471125c9d8c66a",
        "to": "0xd98f9971773045735c62cd8f1a70047f81b9a468",
        "gas": "0x8df2",
        "value": "0x0",
        "input": "0x095ea7b3000000000000000000000000000000000022d473030f116ddee9f6b43ac78ba3ffffffffffffffffffffffffffffffffffffffffffffffffffffffffffffffff",
        "nonce": "0x38",
        "chainId": "0xaa36a7"
      },
      "additionalContracts": [],
      "isFixedGasLimit": false
    },
    {
      "hash": "0x7581e312d1f8a778d4042866dc13e09e4922c2ee436e7c7e71135cf1bc451e0d",
      "transactionType": "CALL",
      "contractName": null,
      "contractAddress": "0x000000000022d473030f116ddee9f6b43ac78ba3",
      "function": "approve(address,address,uint160,uint48)",
      "arguments": [
        "0xfFf9976782d46CC05630D1f6eBAb18b2324d6B14",
        "0x5de19fE5E05fD56882ACd533cE303def8c5C5705",
        "1461501637330902918203684832716283019655932542975",
        "1760008464"
      ],
      "transaction": {
        "from": "0x3324533837e165829b8e581b4f471125c9d8c66a",
        "to": "0x000000000022d473030f116ddee9f6b43ac78ba3",
        "gas": "0xa59b",
        "value": "0x0",
        "input": "0x87517c45000000000000000000000000fff9976782d46cc05630d1f6ebab18b2324d6b140000000000000000000000005de19fe5e05fd56882acd533ce303def8c5c5705000000000000000000000000ffffffffffffffffffffffffffffffffffffffff0000000000000000000000000000000000000000000000000000000068e79910",
        "nonce": "0x39",
        "chainId": "0xaa36a7"
      },
      "additionalContracts": [],
      "isFixedGasLimit": false
    },
    {
      "hash": "0x42b75c4ca218f863de18ac4c2a0b9abbaed3fa8454f0713c3e784b743660b4f5",
      "transactionType": "CALL",
      "contractName": null,
      "contractAddress": "0x000000000022d473030f116ddee9f6b43ac78ba3",
      "function": "approve(address,address,uint160,uint48)",
      "arguments": [
        "0xD98f9971773045735C62cD8f1a70047f81b9a468",
        "0x5de19fE5E05fD56882ACd533cE303def8c5C5705",
        "1461501637330902918203684832716283019655932542975",
        "1760008464"
      ],
      "transaction": {
        "from": "0x3324533837e165829b8e581b4f471125c9d8c66a",
        "to": "0x000000000022d473030f116ddee9f6b43ac78ba3",
        "gas": "0xa59b",
        "value": "0x0",
        "input": "0x87517c45000000000000000000000000d98f9971773045735c62cd8f1a70047f81b9a4680000000000000000000000005de19fe5e05fd56882acd533ce303def8c5c5705000000000000000000000000ffffffffffffffffffffffffffffffffffffffff0000000000000000000000000000000000000000000000000000000068e79910",
        "nonce": "0x3a",
        "chainId": "0xaa36a7"
      },
      "additionalContracts": [],
      "isFixedGasLimit": false
    },
    {
      "hash": "0x21893a107fd6b8feabe972a67e502a6f4714a530badb22047de9c50f2d54eb23",
      "transactionType": "CALL",
      "contractName": null,
      "contractAddress": "0x5de19fe5e05fd56882acd533ce303def8c5c5705",
      "function": "modifyLiquidities(bytes,uint256)",
      "arguments": [
        "0x000000000000000000000000000000000000000000000000000000000000004000000000000000000000000000000000000000000000000000000000000000800000000000000000000000000000000000000000000000000000000000000002020d00000000000000000000000000000000000000000000000000000000000000000000000000000000000000000000000000000000000000000000000000020000000000000000000000000000000000000000000000000000000000000040000000000000000000000000000000000000000000000000000000000000020000000000000000000000000000000000000000000000000000000000000001a0000000000000000000000000d98f9971773045735c62cd8f1a70047f81b9a468000000000000000000000000fff9976782d46cc05630d1f6ebab18b2324d6b140000000000000000000000000000000000000000000000000000000000000bb8000000000000000000000000000000000000000000000000000000000000003c0000000000000000000000000000000000000000000000000000000000000000fffffffffffffffffffffffffffffffffffffffffffffffffffffffffffff8f80000000000000000000000000000000000000000000000000000000000000708000000000000000000000000000000000000000000000000016345785d8a000000000000000000000000000000000000000000000000000000b1a2bc2ec500000000000000000000000000000000000000000000000000056bc75e2d631000000000000000000000000000003324533837e165829b8e581b4f471125c9d8c66a000000000000000000000000000000000000000000000000000000000000018000000000000000000000000000000000000000000000000000000000000000000000000000000000000000000000000000000000000000000000000000000040000000000000000000000000d98f9971773045735c62cd8f1a70047f81b9a468000000000000000000000000fff9976782d46cc05630d1f6ebab18b2324d6b14",
        "1757416524"
      ],
      "transaction": {
        "from": "0x3324533837e165829b8e581b4f471125c9d8c66a",
        "to": "0x5de19fe5e05fd56882acd533ce303def8c5c5705",
        "gas": "0x4f038",
        "value": "0x0",
        "input": "0xdd46508f00000000000000000000000000000000000000000000000000000000000000400000000000000000000000000000000000000000000000000000000068c00c4c0000000000000000000000000000000000000000000000000000000000000300000000000000000000000000000000000000000000000000000000000000004000000000000000000000000000000000000000000000000000000000000000800000000000000000000000000000000000000000000000000000000000000002020d00000000000000000000000000000000000000000000000000000000000000000000000000000000000000000000000000000000000000000000000000020000000000000000000000000000000000000000000000000000000000000040000000000000000000000000000000000000000000000000000000000000020000000000000000000000000000000000000000000000000000000000000001a0000000000000000000000000d98f9971773045735c62cd8f1a70047f81b9a468000000000000000000000000fff9976782d46cc05630d1f6ebab18b2324d6b140000000000000000000000000000000000000000000000000000000000000bb8000000000000000000000000000000000000000000000000000000000000003c0000000000000000000000000000000000000000000000000000000000000000fffffffffffffffffffffffffffffffffffffffffffffffffffffffffffff8f80000000000000000000000000000000000000000000000000000000000000708000000000000000000000000000000000000000000000000016345785d8a000000000000000000000000000000000000000000000000000000b1a2bc2ec500000000000000000000000000000000000000000000000000056bc75e2d631000000000000000000000000000003324533837e165829b8e581b4f471125c9d8c66a000000000000000000000000000000000000000000000000000000000000018000000000000000000000000000000000000000000000000000000000000000000000000000000000000000000000000000000000000000000000000000000040000000000000000000000000d98f9971773045735c62cd8f1a70047f81b9a468000000000000000000000000fff9976782d46cc05630d1f6ebab18b2324d6b14",
        "nonce": "0x3b",
        "chainId": "0xaa36a7"
      },
      "additionalContracts": [],
      "isFixedGasLimit": false
    }
  ],
  "receipts": [
    {
      "status": "0x1",
      "cumulativeGasUsed": "0x58117c",
      "logs": [
        {
          "address": "0xfff9976782d46cc05630d1f6ebab18b2324d6b14",
          "topics": [
            "0x8c5be1e5ebec7d5bd14f71427d1e84f3dd0314c0f7b2291e5b200ac8c7c3b925",
            "0x0000000000000000000000003324533837e165829b8e581b4f471125c9d8c66a",
            "0x000000000000000000000000000000000022d473030f116ddee9f6b43ac78ba3"
          ],
          "data": "0xffffffffffffffffffffffffffffffffffffffffffffffffffffffffffffffff",
          "blockHash": "0xc1c11d540ace85a14417568b75bf114d0ea2e1dd4662aca0efd2130b60c966a7",
          "blockNumber": "0x8bdfad",
          "blockTimestamp": "0x68c00c40",
          "transactionHash": "0xde131b317561a487ed1384a675aee647059063fe4ff975a4ebbbae98e8a759cd",
          "transactionIndex": "0x50",
          "logIndex": "0x56",
          "removed": false
        }
      ],
      "logsBloom": "0x00000000000000000000000000000000000000000000000000000000000000000000000000000000000000000000000000000000800000000000000000200000004000000000000000004000000000000000000000000800000000000000000000000000000000000000000000000000000000000000000000000000000000000040000000000000000000200000000000000000000000000000000000000000020020000000000000000000000000000000000000000000000000000000000000000000000000000002000000000000000000000000000000000000000000000010001000000000000000000000000000000000000000000000000000000000",
      "type": "0x2",
      "transactionHash": "0xde131b317561a487ed1384a675aee647059063fe4ff975a4ebbbae98e8a759cd",
      "transactionIndex": "0x50",
      "blockHash": "0xc1c11d540ace85a14417568b75bf114d0ea2e1dd4662aca0efd2130b60c966a7",
      "blockNumber": "0x8bdfad",
      "gasUsed": "0x6724",
      "effectiveGasPrice": "0xb1aca52",
      "from": "0x3324533837e165829b8e581b4f471125c9d8c66a",
      "to": "0xfff9976782d46cc05630d1f6ebab18b2324d6b14",
      "contractAddress": null
    },
    {
      "status": "0x1",
      "cumulativeGasUsed": "0x587841",
      "logs": [
        {
          "address": "0xd98f9971773045735c62cd8f1a70047f81b9a468",
          "topics": [
            "0x8c5be1e5ebec7d5bd14f71427d1e84f3dd0314c0f7b2291e5b200ac8c7c3b925",
            "0x0000000000000000000000003324533837e165829b8e581b4f471125c9d8c66a",
            "0x000000000000000000000000000000000022d473030f116ddee9f6b43ac78ba3"
          ],
          "data": "0xffffffffffffffffffffffffffffffffffffffffffffffffffffffffffffffff",
          "blockHash": "0xc1c11d540ace85a14417568b75bf114d0ea2e1dd4662aca0efd2130b60c966a7",
          "blockNumber": "0x8bdfad",
          "blockTimestamp": "0x68c00c40",
          "transactionHash": "0x733ef4753fc69bb190cd9a63c25f08fcbfc1728cde397df284b13bf908dabc46",
          "transactionIndex": "0x51",
          "logIndex": "0x57",
          "removed": false
        }
      ],
      "logsBloom": "0x00000000000000000000000000000000000000000000000000000000000000000000000000000000000000000000000000000000800000000000400000200000004000000000000000004000000000000000000000000800000000000000000000000000000000000000000000000000000000000000000000000000000000000000000000000000000000200000000000000000000000000000000000000000020000000000000000000000000000000000000000000000000000000000000000000000100000000000000000000000000000000000000000000000000000000010001000000000000000000000000000000004000000000000000000000000",
      "type": "0x2",
      "transactionHash": "0x733ef4753fc69bb190cd9a63c25f08fcbfc1728cde397df284b13bf908dabc46",
      "transactionIndex": "0x51",
      "blockHash": "0xc1c11d540ace85a14417568b75bf114d0ea2e1dd4662aca0efd2130b60c966a7",
      "blockNumber": "0x8bdfad",
      "gasUsed": "0x66c5",
      "effectiveGasPrice": "0xb1aca52",
      "from": "0x3324533837e165829b8e581b4f471125c9d8c66a",
      "to": "0xd98f9971773045735c62cd8f1a70047f81b9a468",
      "contractAddress": null
    },
    {
      "status": "0x1",
      "cumulativeGasUsed": "0x58f027",
      "logs": [
        {
          "address": "0x000000000022d473030f116ddee9f6b43ac78ba3",
          "topics": [
            "0xda9fa7c1b00402c17d0161b249b1ab8bbec047c5a52207b9c112deffd817036b",
            "0x0000000000000000000000003324533837e165829b8e581b4f471125c9d8c66a",
            "0x000000000000000000000000fff9976782d46cc05630d1f6ebab18b2324d6b14",
            "0x0000000000000000000000005de19fe5e05fd56882acd533ce303def8c5c5705"
          ],
          "data": "0x000000000000000000000000ffffffffffffffffffffffffffffffffffffffff0000000000000000000000000000000000000000000000000000000068e79910",
          "blockHash": "0xc1c11d540ace85a14417568b75bf114d0ea2e1dd4662aca0efd2130b60c966a7",
          "blockNumber": "0x8bdfad",
          "blockTimestamp": "0x68c00c40",
          "transactionHash": "0x7581e312d1f8a778d4042866dc13e09e4922c2ee436e7c7e71135cf1bc451e0d",
          "transactionIndex": "0x52",
          "logIndex": "0x58",
          "removed": false
        }
      ],
      "logsBloom": "0x00010400001000000000000000000000000000000000000000000000000000000000400000000000000000000000000000000800000000000000000000080000004000000000000000000000000000000000000000000000000000000000000000000000000000000000000000000000000000000000000000100000000000000020000000000000000000200000000000000000000000000000000000000000000000000000000000000000000000000000000000000000000000080000000000000000000000000000000001000000000000000000000040000000000000000000001000000000000000000000000000000000000000000000000000000400",
      "type": "0x2",
      "transactionHash": "0x7581e312d1f8a778d4042866dc13e09e4922c2ee436e7c7e71135cf1bc451e0d",
      "transactionIndex": "0x52",
      "blockHash": "0xc1c11d540ace85a14417568b75bf114d0ea2e1dd4662aca0efd2130b60c966a7",
      "blockNumber": "0x8bdfad",
      "gasUsed": "0x77e6",
      "effectiveGasPrice": "0xb1aca52",
      "from": "0x3324533837e165829b8e581b4f471125c9d8c66a",
      "to": "0x000000000022d473030f116ddee9f6b43ac78ba3",
      "contractAddress": null
    },
    {
      "status": "0x1",
      "cumulativeGasUsed": "0x59680d",
      "logs": [
        {
          "address": "0x000000000022d473030f116ddee9f6b43ac78ba3",
          "topics": [
            "0xda9fa7c1b00402c17d0161b249b1ab8bbec047c5a52207b9c112deffd817036b",
            "0x0000000000000000000000003324533837e165829b8e581b4f471125c9d8c66a",
            "0x000000000000000000000000d98f9971773045735c62cd8f1a70047f81b9a468",
            "0x0000000000000000000000005de19fe5e05fd56882acd533ce303def8c5c5705"
          ],
          "data": "0x000000000000000000000000ffffffffffffffffffffffffffffffffffffffff0000000000000000000000000000000000000000000000000000000068e79910",
          "blockHash": "0xc1c11d540ace85a14417568b75bf114d0ea2e1dd4662aca0efd2130b60c966a7",
          "blockNumber": "0x8bdfad",
          "blockTimestamp": "0x68c00c40",
          "transactionHash": "0x42b75c4ca218f863de18ac4c2a0b9abbaed3fa8454f0713c3e784b743660b4f5",
          "transactionIndex": "0x53",
          "logIndex": "0x59",
          "removed": false
        }
      ],
      "logsBloom": "0x00010400000000008000000000000000000000000000000000000000000000000000400000000000000000000000000000000000000000000000000000080000004000000000000000000000000000000000000000000000000000000000000000000000000000000000000000000000000000000000000000100000000000000020000000000000000000200000000000000000000000000000000000000000000008000000000000000000000000000000000000000000000000080000000000000000000000000000000000000000000000000000000040000000000000000000001000000010000000000000000000000000000000000000000000000400",
      "type": "0x2",
      "transactionHash": "0x42b75c4ca218f863de18ac4c2a0b9abbaed3fa8454f0713c3e784b743660b4f5",
      "transactionIndex": "0x53",
      "blockHash": "0xc1c11d540ace85a14417568b75bf114d0ea2e1dd4662aca0efd2130b60c966a7",
      "blockNumber": "0x8bdfad",
      "gasUsed": "0x77e6",
      "effectiveGasPrice": "0xb1aca52",
      "from": "0x3324533837e165829b8e581b4f471125c9d8c66a",
      "to": "0x000000000022d473030f116ddee9f6b43ac78ba3",
      "contractAddress": null
    },
    {
      "status": "0x1",
      "cumulativeGasUsed": "0x5cfb53",
      "logs": [
        {
          "address": "0x5de19fe5e05fd56882acd533ce303def8c5c5705",
          "topics": [
            "0xddf252ad1be2c89b69c2b068fc378daa952ba7f163c4a11628f55a4df523b3ef",
            "0x0000000000000000000000000000000000000000000000000000000000000000",
            "0x0000000000000000000000003324533837e165829b8e581b4f471125c9d8c66a",
            "0x0000000000000000000000000000000000000000000000000000000000000002"
          ],
          "data": "0x",
          "blockHash": "0xc1c11d540ace85a14417568b75bf114d0ea2e1dd4662aca0efd2130b60c966a7",
          "blockNumber": "0x8bdfad",
          "blockTimestamp": "0x68c00c40",
          "transactionHash": "0x21893a107fd6b8feabe972a67e502a6f4714a530badb22047de9c50f2d54eb23",
          "transactionIndex": "0x54",
          "logIndex": "0x5a",
          "removed": false
        },
        {
          "address": "0xe03a1074c86cfedd5c142c4f04f1a1536e203543",
          "topics": [
            "0xf208f4912782fd25c7f114ca3723a2d5dd6f3bcc3ac8db5af63baa85f711d5ec",
            "0xe4d71c27eb09d89e5f11945417505181a7e3724bddbee60e42efc49a2a7f022c",
            "0x0000000000000000000000005de19fe5e05fd56882acd533ce303def8c5c5705"
          ],
          "data": "0xfffffffffffffffffffffffffffffffffffffffffffffffffffffffffffff8f80000000000000000000000000000000000000000000000000000000000000708000000000000000000000000000000000000000000000000016345785d8a00000000000000000000000000000000000000000000000000000000000000000002",
          "blockHash": "0xc1c11d540ace85a14417568b75bf114d0ea2e1dd4662aca0efd2130b60c966a7",
          "blockNumber": "0x8bdfad",
          "blockTimestamp": "0x68c00c40",
          "transactionHash": "0x21893a107fd6b8feabe972a67e502a6f4714a530badb22047de9c50f2d54eb23",
          "transactionIndex": "0x54",
          "logIndex": "0x5b",
          "removed": false
        },
        {
          "address": "0xd98f9971773045735c62cd8f1a70047f81b9a468",
          "topics": [
            "0xddf252ad1be2c89b69c2b068fc378daa952ba7f163c4a11628f55a4df523b3ef",
            "0x0000000000000000000000003324533837e165829b8e581b4f471125c9d8c66a",
            "0x000000000000000000000000e03a1074c86cfedd5c142c4f04f1a1536e203543"
          ],
          "data": "0x00000000000000000000000000000000000000000000000000400831478d8395",
          "blockHash": "0xc1c11d540ace85a14417568b75bf114d0ea2e1dd4662aca0efd2130b60c966a7",
          "blockNumber": "0x8bdfad",
          "blockTimestamp": "0x68c00c40",
          "transactionHash": "0x21893a107fd6b8feabe972a67e502a6f4714a530badb22047de9c50f2d54eb23",
          "transactionIndex": "0x54",
          "logIndex": "0x5c",
          "removed": false
        }
      ],
      "logsBloom": "0x04000400000000000000000000000000000000000000000000000000000000000000400000000000000000000000000000000100000000000000400000000000004000000000000000000028000000000000000000000000000000000000000000000000020000000000000080000800000000000000100000100010000000000000000001000000000010200000000000000000000000000000000000000000000004000000000000000100000000000000000000000000000000000000000000000002100000000000000000000400000000020000000000001080000020001000001000000000000000000000080004000004008000000000000000000000",
      "type": "0x2",
      "transactionHash": "0x21893a107fd6b8feabe972a67e502a6f4714a530badb22047de9c50f2d54eb23",
      "transactionIndex": "0x54",
      "blockHash": "0xc1c11d540ace85a14417568b75bf114d0ea2e1dd4662aca0efd2130b60c966a7",
      "blockNumber": "0x8bdfad",
      "gasUsed": "0x39346",
      "effectiveGasPrice": "0xb1aca52",
      "from": "0x3324533837e165829b8e581b4f471125c9d8c66a",
      "to": "0x5de19fe5e05fd56882acd533ce303def8c5c5705",
      "contractAddress": null
    }
  ],
  "libraries": [],
  "pending": [],
  "returns": {},
  "timestamp": 1757416514806,
  "chain": 11155111,
  "commit": null
}