{
  "transactions": [
    {
      "hash": "0x9c2b1cf953c0710efac4247a7b6a01334648c552a686a95df351430e8682bf60",
      "transactionType": "CALL",
      "contractName": null,
      "contractAddress": "0xfff9976782d46cc05630d1f6ebab18b2324d6b14",
      "function": "approve(address,uint256)",
      "arguments": [
        "0x5de19fE5E05fD56882ACd533cE303def8c5C5705",
        "115792089237316195423570985008687907853269984665640564039457584007913129639935"
      ],
      "transaction": {
        "from": "0x3324533837e165829b8e581b4f471125c9d8c66a",
        "to": "0xfff9976782d46cc05630d1f6ebab18b2324d6b14",
        "gas": "0xfa27",
        "value": "0x0",
        "input": "0x095ea7b30000000000000000000000005de19fe5e05fd56882acd533ce303def8c5c5705ffffffffffffffffffffffffffffffffffffffffffffffffffffffffffffffff",
        "nonce": "0xe",
        "chainId": "0xaa36a7"
      },
      "additionalContracts": [],
      "isFixedGasLimit": false
    },
    {
      "hash": "0x87c4a17498f6ead45653a31383fdad069e6b8dc6746d388ec08663ce40fd1d3d",
      "transactionType": "CALL",
      "contractName": null,
      "contractAddress": "0xd98f9971773045735c62cd8f1a70047f81b9a468",
      "function": "approve(address,uint256)",
      "arguments": [
        "0x5de19fE5E05fD56882ACd533cE303def8c5C5705",
        "115792089237316195423570985008687907853269984665640564039457584007913129639935"
      ],
      "transaction": {
        "from": "0x3324533837e165829b8e581b4f471125c9d8c66a",
        "to": "0xd98f9971773045735c62cd8f1a70047f81b9a468",
        "gas": "0xf9a4",
        "value": "0x0",
        "input": "0x095ea7b30000000000000000000000005de19fe5e05fd56882acd533ce303def8c5c5705ffffffffffffffffffffffffffffffffffffffffffffffffffffffffffffffff",
        "nonce": "0xf",
        "chainId": "0xaa36a7"
      },
      "additionalContracts": [],
      "isFixedGasLimit": false
    }
  ],
  "receipts": [
    {
      "status": "0x1",
      "cumulativeGasUsed": "0xb2be0b",
      "logs": [
        {
          "address": "0xfff9976782d46cc05630d1f6ebab18b2324d6b14",
          "topics": [
            "0x8c5be1e5ebec7d5bd14f71427d1e84f3dd0314c0f7b2291e5b200ac8c7c3b925",
            "0x0000000000000000000000003324533837e165829b8e581b4f471125c9d8c66a",
            "0x0000000000000000000000005de19fe5e05fd56882acd533ce303def8c5c5705"
          ],
          "data": "0xffffffffffffffffffffffffffffffffffffffffffffffffffffffffffffffff",
          "blockHash": "0xffd3e5ce890b9f2c300d2092c50ef33949228efd55abba6350284bed1b42c9de",
          "blockNumber": "0x8bc6c2",
          "blockTimestamp": "0x68bedb48",
          "transactionHash": "0x9c2b1cf953c0710efac4247a7b6a01334648c552a686a95df351430e8682bf60",
          "transactionIndex": "0x46",
          "logIndex": "0xaf",
          "removed": false
        }
      ],
      "logsBloom": "0x00000400000000000000000000000000000000000000000000000000000000000000400000000000000000000000000000000000000000000000000000200000004000000000000000000000000000000000000000000000000000000000000000000000000000000000000000000000000000000000000000100000000000000040000000000000000000200000000000000000000000000000000000000000020020000000000000000000000000000000000000000000000000000000000000000000000000000002000000000000000000000000000000000000000000000010001000000000000000000000000000000000000000000000000000000000",
      "type": "0x2",
      "transactionHash": "0x9c2b1cf953c0710efac4247a7b6a01334648c552a686a95df351430e8682bf60",
      "transactionIndex": "0x46",
      "blockHash": "0xffd3e5ce890b9f2c300d2092c50ef33949228efd55abba6350284bed1b42c9de",
      "blockNumber": "0x8bc6c2",
      "gasUsed": "0xb51c",
      "effectiveGasPrice": "0x447410",
      "from": "0x3324533837e165829b8e581b4f471125c9d8c66a",
      "to": "0xfff9976782d46cc05630d1f6ebab18b2324d6b14",
      "contractAddress": null
    },
    {
      "status": "0x1",
      "cumulativeGasUsed": "0xb372c8",
      "logs": [
        {
          "address": "0xd98f9971773045735c62cd8f1a70047f81b9a468",
          "topics": [
            "0x8c5be1e5ebec7d5bd14f71427d1e84f3dd0314c0f7b2291e5b200ac8c7c3b925",
            "0x0000000000000000000000003324533837e165829b8e581b4f471125c9d8c66a",
            "0x0000000000000000000000005de19fe5e05fd56882acd533ce303def8c5c5705"
          ],
          "data": "0xffffffffffffffffffffffffffffffffffffffffffffffffffffffffffffffff",
          "blockHash": "0xffd3e5ce890b9f2c300d2092c50ef33949228efd55abba6350284bed1b42c9de",
          "blockNumber": "0x8bc6c2",
          "blockTimestamp": "0x68bedb48",
          "transactionHash": "0x87c4a17498f6ead45653a31383fdad069e6b8dc6746d388ec08663ce40fd1d3d",
          "transactionIndex": "0x47",
          "logIndex": "0xb0",
          "removed": false
        }
      ],
      "logsBloom": "0x00000400000000000000000000000000000000000000000000000000000000000000400000000000000000000000000000000000000000000000400000200000004000000000000000000000000000000000000000000000000000000000000000000000000000000000000000000000000000000000000000100000000000000000000000000000000000200000000000000000000000000000000000000000020000000000000000000000000000000000000000000000000000000000000000000000100000000000000000000000000000000000000000000000000000000010001000000000000000000000000000000004000000000000000000000000",
      "type": "0x2",
      "transactionHash": "0x87c4a17498f6ead45653a31383fdad069e6b8dc6746d388ec08663ce40fd1d3d",
      "transactionIndex": "0x47",
      "blockHash": "0xffd3e5ce890b9f2c300d2092c50ef33949228efd55abba6350284bed1b42c9de",
      "blockNumber": "0x8bc6c2",
      "gasUsed": "0xb4bd",
      "effectiveGasPrice": "0x447410",
      "from": "0x3324533837e165829b8e581b4f471125c9d8c66a",
      "to": "0xd98f9971773045735c62cd8f1a70047f81b9a468",
      "contractAddress": null
    }
  ],
  "libraries": [],
  "pending": [],
  "returns": {},
  "timestamp": 1757338442704,
  "chain": 11155111,
  "commit": null
}