{
  "transactions": [
    {
      "hash": "0x75492dd38ef3cdbae56e9a83adfa629accd005a3a62c7187aea40551ac63c104",
      "transactionType": "CALL",
      "contractName": null,
      "contractAddress": "0xe03a1074c86cfedd5c142c4f04f1a1536e203543",
      "function": "initialize((address,address,uint24,int24,address),uint160)",
      "arguments": [
        "(0xD98f9971773045735C62cD8f1a70047f81b9a468, 0xfFf9976782d46CC05630D1f6eBAb18b2324d6B14, 3000, 60, 0x0000000000000000000000000000000000000000)",
        "79228162514264337593543950336"
      ],
      "transaction": {
        "from": "0x3324533837e165829b8e581b4f471125c9d8c66a",
        "to": "0xe03a1074c86cfedd5c142c4f04f1a1536e203543",
        "gas": "0x11609",
        "value": "0x0",
        "input": "0x6276cbbe000000000000000000000000d98f9971773045735c62cd8f1a70047f81b9a468000000000000000000000000fff9976782d46cc05630d1f6ebab18b2324d6b140000000000000000000000000000000000000000000000000000000000000bb8000000000000000000000000000000000000000000000000000000000000003c00000000000000000000000000000000000000000000000000000000000000000000000000000000000000000000000000000001000000000000000000000000",
        "nonce": "0xc",
        "chainId": "0xaa36a7"
      },
      "additionalContracts": [],
      "isFixedGasLimit": false
    }
  ],
  "receipts": [
    {
      "status": "0x1",
      "cumulativeGasUsed": "0x154516b",
      "logs": [
        {
          "address": "0xe03a1074c86cfedd5c142c4f04f1a1536e203543",
          "topics": [
            "0xdd466e674ea557f56295e2d0218a125ea4b4f0f6f3307b95f85e6110838d6438",
            "0xe4d71c27eb09d89e5f11945417505181a7e3724bddbee60e42efc49a2a7f022c",
            "0x000000000000000000000000d98f9971773045735c62cd8f1a70047f81b9a468",
            "0x000000000000000000000000fff9976782d46cc05630d1f6ebab18b2324d6b14"
          ],
          "data": "0x0000000000000000000000000000000000000000000000000000000000000bb8000000000000000000000000000000000000000000000000000000000000003c000000000000000000000000000000000000000000000000000000000000000000000000000000000000000000000000000000010000000000000000000000000000000000000000000000000000000000000000000000000000000000000000",
          "blockHash": "0x36df2caf756bf2a44edf4ab3ec4a5d2ac02b8b226d7a985dc2915d299f2c4249",
          "blockNumber": "0x8bc4f8",
          "blockTimestamp": "0x68bec5b8",
          "transactionHash": "0x75492dd38ef3cdbae56e9a83adfa629accd005a3a62c7187aea40551ac63c104",
          "transactionIndex": "0x51",
          "logIndex": "0x76",
          "removed": false
        }
      ],
      "logsBloom": "0x00000000001000008000000000000000000000000000000000000000000000000000000000000000000000000000000000000900000000000000000000000000000000000000000000000020000000000000000000000000000000000000000000000000000000000000000000000000000000000000100000000000000000000000000000000008000000000000000000000001000000000000000000200000000008000000000000000000000000000000000000000000000000000000000000000000000000000000000001000400000000020000000000000000000000001000000000000010000000000000000000000000000000000000000000000000",
      "type": "0x2",
      "transactionHash": "0x75492dd38ef3cdbae56e9a83adfa629accd005a3a62c7187aea40551ac63c104",
      "transactionIndex": "0x51",
      "blockHash": "0x36df2caf756bf2a44edf4ab3ec4a5d2ac02b8b226d7a985dc2915d299f2c4249",
      "blockNumber": "0x8bc4f8",
      "gasUsed": "0xc94c",
      "effectiveGasPrice": "0x37a5e8",
      "from": "0x3324533837e165829b8e581b4f471125c9d8c66a",
      "to": "0xe03a1074c86cfedd5c142c4f04f1a1536e203543",
      "contractAddress": null
    }
  ],
  "libraries": [],
  "pending": [],
  "returns": {},
  "timestamp": 1757332923648,
  "chain": 11155111,
  "commit": null
}