{
  "transactions": [
    {
      "hash": "0x06971266174ff40a8c23870c70e7c82f9acad8a2fe0df1e9050ce8b41eda270a",
      "transactionType": "CALL",
      "contractName": null,
      "contractAddress": "0xc615726d806bb7d5516609940249b2a13f8cc509",
      "function": "initialize((address,address,uint24,int24,address),uint160)",
      "arguments": [
        "(0xD98f9971773045735C62cD8f1a70047f81b9a468, 0xfFf9976782d46CC05630D1f6eBAb18b2324d6B14, 3000, 60, 0x0000000000000000000000000000000000000000)",
        "79228162514264337593543950336"
      ],
      "transaction": {
        "from": "0x3324533837e165829b8e581b4f471125c9d8c66a",
        "to": "0xc615726d806bb7d5516609940249b2a13f8cc509",
        "gas": "0x117c6",
        "value": "0x0",
        "input": "0x6276cbbe000000000000000000000000d98f9971773045735c62cd8f1a70047f81b9a468000000000000000000000000fff9976782d46cc05630d1f6ebab18b2324d6b140000000000000000000000000000000000000000000000000000000000000bb8000000000000000000000000000000000000000000000000000000000000003c00000000000000000000000000000000000000000000000000000000000000000000000000000000000000000000000000000001000000000000000000000000",
        "nonce": "0xa",
        "chainId": "0xaa36a7"
      },
      "additionalContracts": [],
      "isFixedGasLimit": false
    }
  ],
  "receipts": [
    {
      "status": "0x1",
      "cumulativeGasUsed": "0x2a1d5de",
      "logs": [
        {
          "address": "0xc615726d806bb7d5516609940249b2a13f8cc509",
          "topics": [
            "0xdd466e674ea557f56295e2d0218a125ea4b4f0f6f3307b95f85e6110838d6438",
            "0xe4d71c27eb09d89e5f11945417505181a7e3724bddbee60e42efc49a2a7f022c",
            "0x000000000000000000000000d98f9971773045735c62cd8f1a70047f81b9a468",
            "0x000000000000000000000000fff9976782d46cc05630d1f6ebab18b2324d6b14"
          ],
          "data": "0x0000000000000000000000000000000000000000000000000000000000000bb8000000000000000000000000000000000000000000000000000000000000003c000000000000000000000000000000000000000000000000000000000000000000000000000000000000000000000000000000010000000000000000000000000000000000000000000000000000000000000000000000000000000000000000",
          "blockHash": "0x9b368d0e2e4f028f10dd8457ec9466aab8362c3beb6ff5200508cd1179a2ae00",
          "blockNumber": "0x8ae2a1",
          "blockTimestamp": "0x68b3f860",
          "transactionHash": "0x06971266174ff40a8c23870c70e7c82f9acad8a2fe0df1e9050ce8b41eda270a",
          "transactionIndex": "0x410",
          "logIndex": "0x7f",
          "removed": false
        }
      ],
      "logsBloom": "0x00000000001000008000000000000000000000000000000000000000000000000000000000000000000000000000000000000800000000000000000000000000000000000000000000000020000000000000000200000000000000000000000000000000000000000000000000000000000000000000000000000000000000000000000000000008000000000000000000000001000000000000000000200000000008000000000008000000000000000000000000000000000000000000000000000000000000000000000001000400000000020000000000000000000000000000000000000010000000000000000000000000000000000000000000002000",
      "type": "0x2",
      "transactionHash": "0x06971266174ff40a8c23870c70e7c82f9acad8a2fe0df1e9050ce8b41eda270a",
      "transactionIndex": "0x410",
      "blockHash": "0x9b368d0e2e4f028f10dd8457ec9466aab8362c3beb6ff5200508cd1179a2ae00",
      "blockNumber": "0x8ae2a1",
      "gasUsed": "0xca8e",
      "effectiveGasPrice": "0x71a1668",
      "from": "0x3324533837e165829b8e581b4f471125c9d8c66a",
      "to": "0xc615726d806bb7d5516609940249b2a13f8cc509",
      "contractAddress": null
    }
  ],
  "libraries": [],
  "pending": [],
  "returns": {},
  "timestamp": 1756624996294,
  "chain": 11155111,
  "commit": null
}