{
  "transactions": [
    {
      "hash": "0x2afbc643d89f44fdaa563c352e3d8e64dd5f191688b08af8ca784346d41b65b4",
      "transactionType": "CALL",
      "contractName": null,
      "contractAddress": "0xfff9976782d46cc05630d1f6ebab18b2324d6b14",
      "function": "approve(address,uint256)",
      "arguments": [
        "0x000000000022D473030F116dDEE9F6B43aC78BA3",
        "115792089237316195423570985008687907853269984665640564039457584007913129639935"
      ],
      "transaction": {
        "from": "0x3324533837e165829b8e581b4f471125c9d8c66a",
        "to": "0xfff9976782d46cc05630d1f6ebab18b2324d6b14",
        "gas": "0x8e76",
        "value": "0x0",
        "input": "0x095ea7b3000000000000000000000000000000000022d473030f116ddee9f6b43ac78ba3ffffffffffffffffffffffffffffffffffffffffffffffffffffffffffffffff",
        "nonce": "0x16",
        "chainId": "0xaa36a7"
      },
      "additionalContracts": [],
      "isFixedGasLimit": false
    },
    {
      "hash": "0x20c7c873ca2c75be04871a20377c8890c95a1d7d6fbfa3834f2baf14612bdb50",
      "transactionType": "CALL",
      "contractName": null,
      "contractAddress": "0xd98f9971773045735c62cd8f1a70047f81b9a468",
      "function": "approve(address,uint256)",
      "arguments": [
        "0x000000000022D473030F116dDEE9F6B43aC78BA3",
        "115792089237316195423570985008687907853269984665640564039457584007913129639935"
      ],
      "transaction": {
        "from": "0x3324533837e165829b8e581b4f471125c9d8c66a",
        "to": "0xd98f9971773045735c62cd8f1a70047f81b9a468",
        "gas": "0x8df2",
        "value": "0x0",
        "input": "0x095ea7b3000000000000000000000000000000000022d473030f116ddee9f6b43ac78ba3ffffffffffffffffffffffffffffffffffffffffffffffffffffffffffffffff",
        "nonce": "0x17",
        "chainId": "0xaa36a7"
      },
      "additionalContracts": [],
      "isFixedGasLimit": false
    },
    {
      "hash": "0x3390cae532c5263713760c062004ff12f5e4c16c6982a1e1311b515abcbab740",
      "transactionType": "CALL",
      "contractName": null,
      "contractAddress": "0x000000000022d473030f116ddee9f6b43ac78ba3",
      "function": "approve(address,address,uint160,uint48)",
      "arguments": [
        "0xfFf9976782d46CC05630D1f6eBAb18b2324d6B14",
        "0x5de19fE5E05fD56882ACd533cE303def8c5C5705",
        "1461501637330902918203684832716283019655932542975",
        "1760001792"
      ],
      "transaction": {
        "from": "0x3324533837e165829b8e581b4f471125c9d8c66a",
        "to": "0x000000000022d473030f116ddee9f6b43ac78ba3",
        "gas": "0xaf48",
        "value": "0x0",
        "input": "0x87517c45000000000000000000000000fff9976782d46cc05630d1f6ebab18b2324d6b140000000000000000000000005de19fe5e05fd56882acd533ce303def8c5c5705000000000000000000000000ffffffffffffffffffffffffffffffffffffffff0000000000000000000000000000000000000000000000000000000068e77f00",
        "nonce": "0x18",
        "chainId": "0xaa36a7"
      },
      "additionalContracts": [],
      "isFixedGasLimit": false
    },
    {
      "hash": "0x476380768677c2d436d8f0c7c6a3d823411f2413268699c0a63bbc5afec5d6ba",
      "transactionType": "CALL",
      "contractName": null,
      "contractAddress": "0x000000000022d473030f116ddee9f6b43ac78ba3",
      "function": "approve(address,address,uint160,uint48)",
      "arguments": [
        "0xD98f9971773045735C62cD8f1a70047f81b9a468",
        "0x5de19fE5E05fD56882ACd533cE303def8c5C5705",
        "1461501637330902918203684832716283019655932542975",
        "1760001792"
      ],
      "transaction": {
        "from": "0x3324533837e165829b8e581b4f471125c9d8c66a",
        "to": "0x000000000022d473030f116ddee9f6b43ac78ba3",
        "gas": "0xaf48",
        "value": "0x0",
        "input": "0x87517c45000000000000000000000000d98f9971773045735c62cd8f1a70047f81b9a4680000000000000000000000005de19fe5e05fd56882acd533ce303def8c5c5705000000000000000000000000ffffffffffffffffffffffffffffffffffffffff0000000000000000000000000000000000000000000000000000000068e77f00",
        "nonce": "0x19",
        "chainId": "0xaa36a7"
      },
      "additionalContracts": [],
      "isFixedGasLimit": false
    },
    {
      "hash": "0xf95aa061558ff9254ad3f4a78d2546ed575b075a9757a4deb98ac63dfa5cbcbe",
      "transactionType": "CALL",
      "contractName": null,
      "contractAddress": "0x5de19fe5e05fd56882acd533ce303def8c5c5705",
      "function": "modifyLiquidities(bytes,uint256)",
      "arguments": [
        "0x000000000000000000000000000000000000000000000000000000000000004000000000000000000000000000000000000000000000000000000000000000800000000000000000000000000000000000000000000000000000000000000002000d00000000000000000000000000000000000000000000000000000000000000000000000000000000000000000000000000000000000000000000000000020000000000000000000000000000000000000000000000000000000000000040000000000000000000000000000000000000000000000000000000000000012000000000000000000000000000000000000000000000000000000000000000c000000000000000000000000000000000000000000000000000000000000000010000000000000000000000000000000000000000000000000011c37937e0800000000000000000000000000000000000000000000000000000b1a2bc2ec50000000000000000000000000000000000000000000000000002b5e3af16b188000000000000000000000000000000000000000000000000000000000000000000a000000000000000000000000000000000000000000000000000000000000000000000000000000000000000000000000000000000000000000000000000000040000000000000000000000000d98f9971773045735c62cd8f1a70047f81b9a468000000000000000000000000fff9976782d46cc05630d1f6ebab18b2324d6b14",
        "1757409852"
      ],
      "transaction": {
        "from": "0x3324533837e165829b8e581b4f471125c9d8c66a",
        "to": "0x5de19fe5e05fd56882acd533ce303def8c5c5705",
        "gas": "0x38c66",
        "value": "0x0",
        "input": "0xdd46508f00000000000000000000000000000000000000000000000000000000000000400000000000000000000000000000000000000000000000000000000068bff23c0000000000000000000000000000000000000000000000000000000000000220000000000000000000000000000000000000000000000000000000000000004000000000000000000000000000000000000000000000000000000000000000800000000000000000000000000000000000000000000000000000000000000002000d00000000000000000000000000000000000000000000000000000000000000000000000000000000000000000000000000000000000000000000000000020000000000000000000000000000000000000000000000000000000000000040000000000000000000000000000000000000000000000000000000000000012000000000000000000000000000000000000000000000000000000000000000c000000000000000000000000000000000000000000000000000000000000000010000000000000000000000000000000000000000000000000011c37937e0800000000000000000000000000000000000000000000000000000b1a2bc2ec50000000000000000000000000000000000000000000000000002b5e3af16b188000000000000000000000000000000000000000000000000000000000000000000a000000000000000000000000000000000000000000000000000000000000000000000000000000000000000000000000000000000000000000000000000000040000000000000000000000000d98f9971773045735c62cd8f1a70047f81b9a468000000000000000000000000fff9976782d46cc05630d1f6ebab18b2324d6b14",
        "nonce": "0x1a",
        "chainId": "0xaa36a7"
      },
      "additionalContracts": [],
      "isFixedGasLimit": false
    }
  ],
  "receipts": [
    {
      "status": "0x1",
      "cumulativeGasUsed": "0x1e431de",
      "logs": [
        {
          "address": "0xfff9976782d46cc05630d1f6ebab18b2324d6b14",
          "topics": [
            "0x8c5be1e5ebec7d5bd14f71427d1e84f3dd0314c0f7b2291e5b200ac8c7c3b925",
            "0x0000000000000000000000003324533837e165829b8e581b4f471125c9d8c66a",
            "0x000000000000000000000000000000000022d473030f116ddee9f6b43ac78ba3"
          ],
          "data": "0xffffffffffffffffffffffffffffffffffffffffffffffffffffffffffffffff",
          "blockHash": "0x4b30799b0a8ad375ad0e982d1f160cf44e179cfa83c37474dbaf75cef3d2ffee",
          "blockNumber": "0x8bdd86",
          "blockTimestamp": "0x68bff224",
          "transactionHash": "0x2afbc643d89f44fdaa563c352e3d8e64dd5f191688b08af8ca784346d41b65b4",
          "transactionIndex": "0x65",
          "logIndex": "0xf5",
          "removed": false
        }
      ],
      "logsBloom": "0x00000000000000000000000000000000000000000000000000000000000000000000000000000000000000000000000000000000800000000000000000200000004000000000000000004000000000000000000000000800000000000000000000000000000000000000000000000000000000000000000000000000000000000040000000000000000000200000000000000000000000000000000000000000020020000000000000000000000000000000000000000000000000000000000000000000000000000002000000000000000000000000000000000000000000000010001000000000000000000000000000000000000000000000000000000000",
      "type": "0x2",
      "transactionHash": "0x2afbc643d89f44fdaa563c352e3d8e64dd5f191688b08af8ca784346d41b65b4",
      "transactionIndex": "0x65",
      "blockHash": "0x4b30799b0a8ad375ad0e982d1f160cf44e179cfa83c37474dbaf75cef3d2ffee",
      "blockNumber": "0x8bdd86",
      "gasUsed": "0x6724",
      "effectiveGasPrice": "0xba396ce",
      "from": "0x3324533837e165829b8e581b4f471125c9d8c66a",
      "to": "0xfff9976782d46cc05630d1f6ebab18b2324d6b14",
      "contractAddress": null
    },
    {
      "status": "0x1",
      "cumulativeGasUsed": "0xd6a982",
      "logs": [
        {
          "address": "0xd98f9971773045735c62cd8f1a70047f81b9a468",
          "topics": [
            "0x8c5be1e5ebec7d5bd14f71427d1e84f3dd0314c0f7b2291e5b200ac8c7c3b925",
            "0x0000000000000000000000003324533837e165829b8e581b4f471125c9d8c66a",
            "0x000000000000000000000000000000000022d473030f116ddee9f6b43ac78ba3"
          ],
          "data": "0xffffffffffffffffffffffffffffffffffffffffffffffffffffffffffffffff",
          "blockHash": "0x54a9c284812875c7a7d4d06c7c4424b0e70a48e3b07f760a7fa9390b9d668980",
          "blockNumber": "0x8bdd87",
          "blockTimestamp": "0x68bff230",
          "transactionHash": "0x20c7c873ca2c75be04871a20377c8890c95a1d7d6fbfa3834f2baf14612bdb50",
          "transactionIndex": "0x4a",
          "logIndex": "0x56",
          "removed": false
        }
      ],
      "logsBloom": "0x00000000000000000000000000000000000000000000000000000000000000000000000000000000000000000000000000000000800000000000400000200000004000000000000000004000000000000000000000000800000000000000000000000000000000000000000000000000000000000000000000000000000000000000000000000000000000200000000000000000000000000000000000000000020000000000000000000000000000000000000000000000000000000000000000000000100000000000000000000000000000000000000000000000000000000010001000000000000000000000000000000004000000000000000000000000",
      "type": "0x2",
      "transactionHash": "0x20c7c873ca2c75be04871a20377c8890c95a1d7d6fbfa3834f2baf14612bdb50",
      "transactionIndex": "0x4a",
      "blockHash": "0x54a9c284812875c7a7d4d06c7c4424b0e70a48e3b07f760a7fa9390b9d668980",
      "blockNumber": "0x8bdd87",
      "gasUsed": "0x66c5",
      "effectiveGasPrice": "0xbd374a6",
      "from": "0x3324533837e165829b8e581b4f471125c9d8c66a",
      "to": "0xd98f9971773045735c62cd8f1a70047f81b9a468",
      "contractAddress": null
    },
    {
      "status": "0x1",
      "cumulativeGasUsed": "0xd7215c",
      "logs": [
        {
          "address": "0x000000000022d473030f116ddee9f6b43ac78ba3",
          "topics": [
            "0xda9fa7c1b00402c17d0161b249b1ab8bbec047c5a52207b9c112deffd817036b",
            "0x0000000000000000000000003324533837e165829b8e581b4f471125c9d8c66a",
            "0x000000000000000000000000fff9976782d46cc05630d1f6ebab18b2324d6b14",
            "0x0000000000000000000000005de19fe5e05fd56882acd533ce303def8c5c5705"
          ],
          "data": "0x000000000000000000000000ffffffffffffffffffffffffffffffffffffffff0000000000000000000000000000000000000000000000000000000068e77f00",
          "blockHash": "0x54a9c284812875c7a7d4d06c7c4424b0e70a48e3b07f760a7fa9390b9d668980",
          "blockNumber": "0x8bdd87",
          "blockTimestamp": "0x68bff230",
          "transactionHash": "0x3390cae532c5263713760c062004ff12f5e4c16c6982a1e1311b515abcbab740",
          "transactionIndex": "0x4b",
          "logIndex": "0x57",
          "removed": false
        }
      ],
      "logsBloom": "0x00010400001000000000000000000000000000000000000000000000000000000000400000000000000000000000000000000800000000000000000000080000004000000000000000000000000000000000000000000000000000000000000000000000000000000000000000000000000000000000000000100000000000000020000000000000000000200000000000000000000000000000000000000000000000000000000000000000000000000000000000000000000000080000000000000000000000000000000001000000000000000000000040000000000000000000001000000000000000000000000000000000000000000000000000000400",
      "type": "0x2",
      "transactionHash": "0x3390cae532c5263713760c062004ff12f5e4c16c6982a1e1311b515abcbab740",
      "transactionIndex": "0x4b",
      "blockHash": "0x54a9c284812875c7a7d4d06c7c4424b0e70a48e3b07f760a7fa9390b9d668980",
      "blockNumber": "0x8bdd87",
      "gasUsed": "0x77da",
      "effectiveGasPrice": "0xbd374a6",
      "from": "0x3324533837e165829b8e581b4f471125c9d8c66a",
      "to": "0x000000000022d473030f116ddee9f6b43ac78ba3",
      "contractAddress": null
    },
    {
      "status": "0x1",
      "cumulativeGasUsed": "0xd79936",
      "logs": [
        {
          "address": "0x000000000022d473030f116ddee9f6b43ac78ba3",
          "topics": [
            "0xda9fa7c1b00402c17d0161b249b1ab8bbec047c5a52207b9c112deffd817036b",
            "0x0000000000000000000000003324533837e165829b8e581b4f471125c9d8c66a",
            "0x000000000000000000000000d98f9971773045735c62cd8f1a70047f81b9a468",
            "0x0000000000000000000000005de19fe5e05fd56882acd533ce303def8c5c5705"
          ],
          "data": "0x000000000000000000000000ffffffffffffffffffffffffffffffffffffffff0000000000000000000000000000000000000000000000000000000068e77f00",
          "blockHash": "0x54a9c284812875c7a7d4d06c7c4424b0e70a48e3b07f760a7fa9390b9d668980",
          "blockNumber": "0x8bdd87",
          "blockTimestamp": "0x68bff230",
          "transactionHash": "0x476380768677c2d436d8f0c7c6a3d823411f2413268699c0a63bbc5afec5d6ba",
          "transactionIndex": "0x4c",
          "logIndex": "0x58",
          "removed": false
        }
      ],
      "logsBloom": "0x00010400000000008000000000000000000000000000000000000000000000000000400000000000000000000000000000000000000000000000000000080000004000000000000000000000000000000000000000000000000000000000000000000000000000000000000000000000000000000000000000100000000000000020000000000000000000200000000000000000000000000000000000000000000008000000000000000000000000000000000000000000000000080000000000000000000000000000000000000000000000000000000040000000000000000000001000000010000000000000000000000000000000000000000000000400",
      "type": "0x2",
      "transactionHash": "0x476380768677c2d436d8f0c7c6a3d823411f2413268699c0a63bbc5afec5d6ba",
      "transactionIndex": "0x4c",
      "blockHash": "0x54a9c284812875c7a7d4d06c7c4424b0e70a48e3b07f760a7fa9390b9d668980",
      "blockNumber": "0x8bdd87",
      "gasUsed": "0x77da",
      "effectiveGasPrice": "0xbd374a6",
      "from": "0x3324533837e165829b8e581b4f471125c9d8c66a",
      "to": "0x000000000022d473030f116ddee9f6b43ac78ba3",
      "contractAddress": null
    },
    {
      "status": "0x1",
      "cumulativeGasUsed": "0xda0657",
      "logs": [
        {
          "address": "0xe03a1074c86cfedd5c142c4f04f1a1536e203543",
          "topics": [
            "0xf208f4912782fd25c7f114ca3723a2d5dd6f3bcc3ac8db5af63baa85f711d5ec",
            "0xe4d71c27eb09d89e5f11945417505181a7e3724bddbee60e42efc49a2a7f022c",
            "0x0000000000000000000000005de19fe5e05fd56882acd533ce303def8c5c5705"
          ],
          "data": "0xffffffffffffffffffffffffffffffffffffffffffffffffffffffffffffff8800000000000000000000000000000000000000000000000000000000000000780000000000000000000000000000000000000000000000000011c37937e080000000000000000000000000000000000000000000000000000000000000000001",
          "blockHash": "0x54a9c284812875c7a7d4d06c7c4424b0e70a48e3b07f760a7fa9390b9d668980",
          "blockNumber": "0x8bdd87",
          "blockTimestamp": "0x68bff230",
          "transactionHash": "0xf95aa061558ff9254ad3f4a78d2546ed575b075a9757a4deb98ac63dfa5cbcbe",
          "transactionIndex": "0x4d",
          "logIndex": "0x59",
          "removed": false
        },
        {
          "address": "0xd98f9971773045735c62cd8f1a70047f81b9a468",
          "topics": [
            "0xddf252ad1be2c89b69c2b068fc378daa952ba7f163c4a11628f55a4df523b3ef",
            "0x0000000000000000000000003324533837e165829b8e581b4f471125c9d8c66a",
            "0x000000000000000000000000e03a1074c86cfedd5c142c4f04f1a1536e203543"
          ],
          "data": "0x00000000000000000000000000000000000000000000000000001b33a8c592f5",
          "blockHash": "0x54a9c284812875c7a7d4d06c7c4424b0e70a48e3b07f760a7fa9390b9d668980",
          "blockNumber": "0x8bdd87",
          "blockTimestamp": "0x68bff230",
          "transactionHash": "0xf95aa061558ff9254ad3f4a78d2546ed575b075a9757a4deb98ac63dfa5cbcbe",
          "transactionIndex": "0x4d",
          "logIndex": "0x5a",
          "removed": false
        },
        {
          "address": "0xfff9976782d46cc05630d1f6ebab18b2324d6b14",
          "topics": [
            "0xddf252ad1be2c89b69c2b068fc378daa952ba7f163c4a11628f55a4df523b3ef",
            "0x0000000000000000000000003324533837e165829b8e581b4f471125c9d8c66a",
            "0x000000000000000000000000e03a1074c86cfedd5c142c4f04f1a1536e203543"
          ],
          "data": "0x00000000000000000000000000000000000000000000000000001b33a8c592f5",
          "blockHash": "0x54a9c284812875c7a7d4d06c7c4424b0e70a48e3b07f760a7fa9390b9d668980",
          "blockNumber": "0x8bdd87",
          "blockTimestamp": "0x68bff230",
          "transactionHash": "0xf95aa061558ff9254ad3f4a78d2546ed575b075a9757a4deb98ac63dfa5cbcbe",
          "transactionIndex": "0x4d",
          "logIndex": "0x5b",
          "removed": false
        }
      ],
      "logsBloom": "0x00000400000000000000000000000000000000000000000000000000000000000000400000000000000000000000000000000100000000000000400000000000004000000000000000000028000000000000000000000000000000000000000000000000000000000000000080000000000000000000100000100010000000000040000001000000000010200000000000000000000000000000000000000000000024000000000000000000000000000000000000000000000000000000000000000002100000000002000000000400000000020000000000001000000000001000001000000000000000000000000004000004000000000000000000000000",
      "type": "0x2",
      "transactionHash": "0xf95aa061558ff9254ad3f4a78d2546ed575b075a9757a4deb98ac63dfa5cbcbe",
      "transactionIndex": "0x4d",
      "blockHash": "0x54a9c284812875c7a7d4d06c7c4424b0e70a48e3b07f760a7fa9390b9d668980",
      "blockNumber": "0x8bdd87",
      "gasUsed": "0x26d21",
      "effectiveGasPrice": "0xbd374a6",
      "from": "0x3324533837e165829b8e581b4f471125c9d8c66a",
      "to": "0x5de19fe5e05fd56882acd533ce303def8c5c5705",
      "contractAddress": null
    }
  ],
  "libraries": [],
  "pending": [],
  "returns": {},
  "timestamp": 1757409842,
  "chain": 11155111,
  "commit": null
}