{
  "transactions": [
    {
      "hash": "0xf8f01aca9578a3347c53529d131718c37a07ad06956658bb5a6b48e066dd0e0c",
      "transactionType": "CALL",
      "contractName": null,
      "contractAddress": "0xfff9976782d46cc05630d1f6ebab18b2324d6b14",
      "function": "approve(address,uint256)",
      "arguments": [
        "0x000000000022D473030F116dDEE9F6B43aC78BA3",
        "115792089237316195423570985008687907853269984665640564039457584007913129639935"
      ],
      "transaction": {
        "from": "0x3324533837e165829b8e581b4f471125c9d8c66a",
        "to": "0xfff9976782d46cc05630d1f6ebab18b2324d6b14",
        "gas": "0x8e76",
        "value": "0x0",
        "input": "0x095ea7b3000000000000000000000000000000000022d473030f116ddee9f6b43ac78ba3ffffffffffffffffffffffffffffffffffffffffffffffffffffffffffffffff",
        "nonce": "0x25",
        "chainId": "0xaa36a7"
      },
      "additionalContracts": [],
      "isFixedGasLimit": false
    },
    {
      "hash": "0x82c60fa3858132f04699c8e2ef561a8463654b705a68c1572be8bbb0e5e9ee48",
      "transactionType": "CALL",
      "contractName": null,
      "contractAddress": "0xd98f9971773045735c62cd8f1a70047f81b9a468",
      "function": "approve(address,uint256)",
      "arguments": [
        "0x000000000022D473030F116dDEE9F6B43aC78BA3",
        "115792089237316195423570985008687907853269984665640564039457584007913129639935"
      ],
      "transaction": {
        "from": "0x3324533837e165829b8e581b4f471125c9d8c66a",
        "to": "0xd98f9971773045735c62cd8f1a70047f81b9a468",
        "gas": "0x8df2",
        "value": "0x0",
        "input": "0x095ea7b3000000000000000000000000000000000022d473030f116ddee9f6b43ac78ba3ffffffffffffffffffffffffffffffffffffffffffffffffffffffffffffffff",
        "nonce": "0x26",
        "chainId": "0xaa36a7"
      },
      "additionalContracts": [],
      "isFixedGasLimit": false
    },
    {
      "hash": "0xb2d63c37a4949bad9aa02bce1aa66ddc81a3f403f1afc7b20a4229d6c05d3304",
      "transactionType": "CALL",
      "contractName": null,
      "contractAddress": "0x000000000022d473030f116ddee9f6b43ac78ba3",
      "function": "approve(address,address,uint160,uint48)",
      "arguments": [
        "0xfFf9976782d46CC05630D1f6eBAb18b2324d6B14",
        "0x5de19fE5E05fD56882ACd533cE303def8c5C5705",
        "1461501637330902918203684832716283019655932542975",
        "1760003400"
      ],
      "transaction": {
        "from": "0x3324533837e165829b8e581b4f471125c9d8c66a",
        "to": "0x000000000022d473030f116ddee9f6b43ac78ba3",
        "gas": "0xa59b",
        "value": "0x0",
        "input": "0x87517c45000000000000000000000000fff9976782d46cc05630d1f6ebab18b2324d6b140000000000000000000000005de19fe5e05fd56882acd533ce303def8c5c5705000000000000000000000000ffffffffffffffffffffffffffffffffffffffff0000000000000000000000000000000000000000000000000000000068e78548",
        "nonce": "0x27",
        "chainId": "0xaa36a7"
      },
      "additionalContracts": [],
      "isFixedGasLimit": false
    },
    {
      "hash": "0x276d3b4d88665ce717a2fe5248c1e86bd4b799fa4c95dafefbdbf958e58ad0b0",
      "transactionType": "CALL",
      "contractName": null,
      "contractAddress": "0x000000000022d473030f116ddee9f6b43ac78ba3",
      "function": "approve(address,address,uint160,uint48)",
      "arguments": [
        "0xD98f9971773045735C62cD8f1a70047f81b9a468",
        "0x5de19fE5E05fD56882ACd533cE303def8c5C5705",
        "1461501637330902918203684832716283019655932542975",
        "1760003400"
      ],
      "transaction": {
        "from": "0x3324533837e165829b8e581b4f471125c9d8c66a",
        "to": "0x000000000022d473030f116ddee9f6b43ac78ba3",
        "gas": "0xa59b",
        "value": "0x0",
        "input": "0x87517c45000000000000000000000000d98f9971773045735c62cd8f1a70047f81b9a4680000000000000000000000005de19fe5e05fd56882acd533ce303def8c5c5705000000000000000000000000ffffffffffffffffffffffffffffffffffffffff0000000000000000000000000000000000000000000000000000000068e78548",
        "nonce": "0x28",
        "chainId": "0xaa36a7"
      },
      "additionalContracts": [],
      "isFixedGasLimit": false
    },
    {
      "hash": "0x9ec2ad15a866dbd7985175050fe81570d27881dc3ca5e04fef7ff7a666da02ab",
      "transactionType": "CALL",
      "contractName": null,
      "contractAddress": "0x5de19fe5e05fd56882acd533ce303def8c5c5705",
      "function": "modifyLiquidities(bytes,uint256)",
      "arguments": [
        "0x000000000000000000000000000000000000000000000000000000000000004000000000000000000000000000000000000000000000000000000000000000800000000000000000000000000000000000000000000000000000000000000002000d00000000000000000000000000000000000000000000000000000000000000000000000000000000000000000000000000000000000000000000000000020000000000000000000000000000000000000000000000000000000000000040000000000000000000000000000000000000000000000000000000000000012000000000000000000000000000000000000000000000000000000000000000c000000000000000000000000000000000000000000000000000000000000000010000000000000000000000000000000000000000000000000011c37937e0800000000000000000000000000000000000000000000000000000b1a2bc2ec50000000000000000000000000000000000000000000000000002b5e3af16b188000000000000000000000000000000000000000000000000000000000000000000a000000000000000000000000000000000000000000000000000000000000000000000000000000000000000000000000000000000000000000000000000000040000000000000000000000000d98f9971773045735c62cd8f1a70047f81b9a468000000000000000000000000fff9976782d46cc05630d1f6ebab18b2324d6b14",
        "1757411460"
      ],
      "transaction": {
        "from": "0x3324533837e165829b8e581b4f471125c9d8c66a",
        "to": "0x5de19fe5e05fd56882acd533ce303def8c5c5705",
        "gas": "0x38c66",
        "value": "0x0",
        "input": "0xdd46508f00000000000000000000000000000000000000000000000000000000000000400000000000000000000000000000000000000000000000000000000068bff8840000000000000000000000000000000000000000000000000000000000000220000000000000000000000000000000000000000000000000000000000000004000000000000000000000000000000000000000000000000000000000000000800000000000000000000000000000000000000000000000000000000000000002000d00000000000000000000000000000000000000000000000000000000000000000000000000000000000000000000000000000000000000000000000000020000000000000000000000000000000000000000000000000000000000000040000000000000000000000000000000000000000000000000000000000000012000000000000000000000000000000000000000000000000000000000000000c000000000000000000000000000000000000000000000000000000000000000010000000000000000000000000000000000000000000000000011c37937e0800000000000000000000000000000000000000000000000000000b1a2bc2ec50000000000000000000000000000000000000000000000000002b5e3af16b188000000000000000000000000000000000000000000000000000000000000000000a000000000000000000000000000000000000000000000000000000000000000000000000000000000000000000000000000000000000000000000000000000040000000000000000000000000d98f9971773045735c62cd8f1a70047f81b9a468000000000000000000000000fff9976782d46cc05630d1f6ebab18b2324d6b14",
        "nonce": "0x29",
        "chainId": "0xaa36a7"
      },
      "additionalContracts": [],
      "isFixedGasLimit": false
    }
  ],
  "receipts": [
    {
      "status": "0x1",
      "cumulativeGasUsed": "0xc0978f",
      "logs": [
        {
          "address": "0xfff9976782d46cc05630d1f6ebab18b2324d6b14",
          "topics": [
            "0x8c5be1e5ebec7d5bd14f71427d1e84f3dd0314c0f7b2291e5b200ac8c7c3b925",
            "0x0000000000000000000000003324533837e165829b8e581b4f471125c9d8c66a",
            "0x000000000000000000000000000000000022d473030f116ddee9f6b43ac78ba3"
          ],
          "data": "0xffffffffffffffffffffffffffffffffffffffffffffffffffffffffffffffff",
          "blockHash": "0xa92e9a3084a60a3ff3682588596d18aa53762a1430810b761d59c0741c079151",
          "blockNumber": "0x8bde0b",
          "blockTimestamp": "0x68bff878",
          "transactionHash": "0xf8f01aca9578a3347c53529d131718c37a07ad06956658bb5a6b48e066dd0e0c",
          "transactionIndex": "0x47",
          "logIndex": "0x56",
          "removed": false
        }
      ],
      "logsBloom": "0x00000000000000000000000000000000000000000000000000000000000000000000000000000000000000000000000000000000800000000000000000200000004000000000000000004000000000000000000000000800000000000000000000000000000000000000000000000000000000000000000000000000000000000040000000000000000000200000000000000000000000000000000000000000020020000000000000000000000000000000000000000000000000000000000000000000000000000002000000000000000000000000000000000000000000000010001000000000000000000000000000000000000000000000000000000000",
      "type": "0x2",
      "transactionHash": "0xf8f01aca9578a3347c53529d131718c37a07ad06956658bb5a6b48e066dd0e0c",
      "transactionIndex": "0x47",
      "blockHash": "0xa92e9a3084a60a3ff3682588596d18aa53762a1430810b761d59c0741c079151",
      "blockNumber": "0x8bde0b",
      "gasUsed": "0x6724",
      "effectiveGasPrice": "0x8b98de4",
      "from": "0x3324533837e165829b8e581b4f471125c9d8c66a",
      "to": "0xfff9976782d46cc05630d1f6ebab18b2324d6b14",
      "contractAddress": null
    },
    {
      "status": "0x1",
      "cumulativeGasUsed": "0xc0fe54",
      "logs": [
        {
          "address": "0xd98f9971773045735c62cd8f1a70047f81b9a468",
          "topics": [
            "0x8c5be1e5ebec7d5bd14f71427d1e84f3dd0314c0f7b2291e5b200ac8c7c3b925",
            "0x0000000000000000000000003324533837e165829b8e581b4f471125c9d8c66a",
            "0x000000000000000000000000000000000022d473030f116ddee9f6b43ac78ba3"
          ],
          "data": "0xffffffffffffffffffffffffffffffffffffffffffffffffffffffffffffffff",
          "blockHash": "0xa92e9a3084a60a3ff3682588596d18aa53762a1430810b761d59c0741c079151",
          "blockNumber": "0x8bde0b",
          "blockTimestamp": "0x68bff878",
          "transactionHash": "0x82c60fa3858132f04699c8e2ef561a8463654b705a68c1572be8bbb0e5e9ee48",
          "transactionIndex": "0x48",
          "logIndex": "0x57",
          "removed": false
        }
      ],
      "logsBloom": "0x00000000000000000000000000000000000000000000000000000000000000000000000000000000000000000000000000000000800000000000400000200000004000000000000000004000000000000000000000000800000000000000000000000000000000000000000000000000000000000000000000000000000000000000000000000000000000200000000000000000000000000000000000000000020000000000000000000000000000000000000000000000000000000000000000000000100000000000000000000000000000000000000000000000000000000010001000000000000000000000000000000004000000000000000000000000",
      "type": "0x2",
      "transactionHash": "0x82c60fa3858132f04699c8e2ef561a8463654b705a68c1572be8bbb0e5e9ee48",
      "transactionIndex": "0x48",
      "blockHash": "0xa92e9a3084a60a3ff3682588596d18aa53762a1430810b761d59c0741c079151",
      "blockNumber": "0x8bde0b",
      "gasUsed": "0x66c5",
      "effectiveGasPrice": "0x8b98de4",
      "from": "0x3324533837e165829b8e581b4f471125c9d8c66a",
      "to": "0xd98f9971773045735c62cd8f1a70047f81b9a468",
      "contractAddress": null
    },
    {
      "status": "0x1",
      "cumulativeGasUsed": "0xc1763a",
      "logs": [
        {
          "address": "0x000000000022d473030f116ddee9f6b43ac78ba3",
          "topics": [
            "0xda9fa7c1b00402c17d0161b249b1ab8bbec047c5a52207b9c112deffd817036b",
            "0x0000000000000000000000003324533837e165829b8e581b4f471125c9d8c66a",
            "0x000000000000000000000000fff9976782d46cc05630d1f6ebab18b2324d6b14",
            "0x0000000000000000000000005de19fe5e05fd56882acd533ce303def8c5c5705"
          ],
          "data": "0x000000000000000000000000ffffffffffffffffffffffffffffffffffffffff0000000000000000000000000000000000000000000000000000000068e78548",
          "blockHash": "0xa92e9a3084a60a3ff3682588596d18aa53762a1430810b761d59c0741c079151",
          "blockNumber": "0x8bde0b",
          "blockTimestamp": "0x68bff878",
          "transactionHash": "0xb2d63c37a4949bad9aa02bce1aa66ddc81a3f403f1afc7b20a4229d6c05d3304",
          "transactionIndex": "0x49",
          "logIndex": "0x58",
          "removed": false
        }
      ],
      "logsBloom": "0x00010400001000000000000000000000000000000000000000000000000000000000400000000000000000000000000000000800000000000000000000080000004000000000000000000000000000000000000000000000000000000000000000000000000000000000000000000000000000000000000000100000000000000020000000000000000000200000000000000000000000000000000000000000000000000000000000000000000000000000000000000000000000080000000000000000000000000000000001000000000000000000000040000000000000000000001000000000000000000000000000000000000000000000000000000400",
      "type": "0x2",
      "transactionHash": "0xb2d63c37a4949bad9aa02bce1aa66ddc81a3f403f1afc7b20a4229d6c05d3304",
      "transactionIndex": "0x49",
      "blockHash": "0xa92e9a3084a60a3ff3682588596d18aa53762a1430810b761d59c0741c079151",
      "blockNumber": "0x8bde0b",
      "gasUsed": "0x77e6",
      "effectiveGasPrice": "0x8b98de4",
      "from": "0x3324533837e165829b8e581b4f471125c9d8c66a",
      "to": "0x000000000022d473030f116ddee9f6b43ac78ba3",
      "contractAddress": null
    },
    {
      "status": "0x1",
      "cumulativeGasUsed": "0xc1ee20",
      "logs": [
        {
          "address": "0x000000000022d473030f116ddee9f6b43ac78ba3",
          "topics": [
            "0xda9fa7c1b00402c17d0161b249b1ab8bbec047c5a52207b9c112deffd817036b",
            "0x0000000000000000000000003324533837e165829b8e581b4f471125c9d8c66a",
            "0x000000000000000000000000d98f9971773045735c62cd8f1a70047f81b9a468",
            "0x0000000000000000000000005de19fe5e05fd56882acd533ce303def8c5c5705"
          ],
          "data": "0x000000000000000000000000ffffffffffffffffffffffffffffffffffffffff0000000000000000000000000000000000000000000000000000000068e78548",
          "blockHash": "0xa92e9a3084a60a3ff3682588596d18aa53762a1430810b761d59c0741c079151",
          "blockNumber": "0x8bde0b",
          "blockTimestamp": "0x68bff878",
          "transactionHash": "0x276d3b4d88665ce717a2fe5248c1e86bd4b799fa4c95dafefbdbf958e58ad0b0",
          "transactionIndex": "0x4a",
          "logIndex": "0x59",
          "removed": false
        }
      ],
      "logsBloom": "0x00010400000000008000000000000000000000000000000000000000000000000000400000000000000000000000000000000000000000000000000000080000004000000000000000000000000000000000000000000000000000000000000000000000000000000000000000000000000000000000000000100000000000000020000000000000000000200000000000000000000000000000000000000000000008000000000000000000000000000000000000000000000000080000000000000000000000000000000000000000000000000000000040000000000000000000001000000010000000000000000000000000000000000000000000000400",
      "type": "0x2",
      "transactionHash": "0x276d3b4d88665ce717a2fe5248c1e86bd4b799fa4c95dafefbdbf958e58ad0b0",
      "transactionIndex": "0x4a",
      "blockHash": "0xa92e9a3084a60a3ff3682588596d18aa53762a1430810b761d59c0741c079151",
      "blockNumber": "0x8bde0b",
      "gasUsed": "0x77e6",
      "effectiveGasPrice": "0x8b98de4",
      "from": "0x3324533837e165829b8e581b4f471125c9d8c66a",
      "to": "0x000000000022d473030f116ddee9f6b43ac78ba3",
      "contractAddress": null
    },
    {
      "status": "0x1",
      "cumulativeGasUsed": "0xc45b41",
      "logs": [
        {
          "address": "0xe03a1074c86cfedd5c142c4f04f1a1536e203543",
          "topics": [
            "0xf208f4912782fd25c7f114ca3723a2d5dd6f3bcc3ac8db5af63baa85f711d5ec",
            "0xe4d71c27eb09d89e5f11945417505181a7e3724bddbee60e42efc49a2a7f022c",
            "0x0000000000000000000000005de19fe5e05fd56882acd533ce303def8c5c5705"
          ],
          "data": "0xffffffffffffffffffffffffffffffffffffffffffffffffffffffffffffff8800000000000000000000000000000000000000000000000000000000000000780000000000000000000000000000000000000000000000000011c37937e080000000000000000000000000000000000000000000000000000000000000000001",
          "blockHash": "0xa92e9a3084a60a3ff3682588596d18aa53762a1430810b761d59c0741c079151",
          "blockNumber": "0x8bde0b",
          "blockTimestamp": "0x68bff878",
          "transactionHash": "0x9ec2ad15a866dbd7985175050fe81570d27881dc3ca5e04fef7ff7a666da02ab",
          "transactionIndex": "0x4b",
          "logIndex": "0x5a",
          "removed": false
        },
        {
          "address": "0xd98f9971773045735c62cd8f1a70047f81b9a468",
          "topics": [
            "0xddf252ad1be2c89b69c2b068fc378daa952ba7f163c4a11628f55a4df523b3ef",
            "0x0000000000000000000000003324533837e165829b8e581b4f471125c9d8c66a",
            "0x000000000000000000000000e03a1074c86cfedd5c142c4f04f1a1536e203543"
          ],
          "data": "0x00000000000000000000000000000000000000000000000000001b33a8c592f5",
          "blockHash": "0xa92e9a3084a60a3ff3682588596d18aa53762a1430810b761d59c0741c079151",
          "blockNumber": "0x8bde0b",
          "blockTimestamp": "0x68bff878",
          "transactionHash": "0x9ec2ad15a866dbd7985175050fe81570d27881dc3ca5e04fef7ff7a666da02ab",
          "transactionIndex": "0x4b",
          "logIndex": "0x5b",
          "removed": false
        },
        {
          "address": "0xfff9976782d46cc05630d1f6ebab18b2324d6b14",
          "topics": [
            "0xddf252ad1be2c89b69c2b068fc378daa952ba7f163c4a11628f55a4df523b3ef",
            "0x0000000000000000000000003324533837e165829b8e581b4f471125c9d8c66a",
            "0x000000000000000000000000e03a1074c86cfedd5c142c4f04f1a1536e203543"
          ],
          "data": "0x00000000000000000000000000000000000000000000000000001b33a8c592f5",
          "blockHash": "0xa92e9a3084a60a3ff3682588596d18aa53762a1430810b761d59c0741c079151",
          "blockNumber": "0x8bde0b",
          "blockTimestamp": "0x68bff878",
          "transactionHash": "0x9ec2ad15a866dbd7985175050fe81570d27881dc3ca5e04fef7ff7a666da02ab",
          "transactionIndex": "0x4b",
          "logIndex": "0x5c",
          "removed": false
        }
      ],
      "logsBloom": "0x00000400000000000000000000000000000000000000000000000000000000000000400000000000000000000000000000000100000000000000400000000000004000000000000000000028000000000000000000000000000000000000000000000000000000000000000080000000000000000000100000100010000000000040000001000000000010200000000000000000000000000000000000000000000024000000000000000000000000000000000000000000000000000000000000000002100000000002000000000400000000020000000000001000000000001000001000000000000000000000000004000004000000000000000000000000",
      "type": "0x2",
      "transactionHash": "0x9ec2ad15a866dbd7985175050fe81570d27881dc3ca5e04fef7ff7a666da02ab",
      "transactionIndex": "0x4b",
      "blockHash": "0xa92e9a3084a60a3ff3682588596d18aa53762a1430810b761d59c0741c079151",
      "blockNumber": "0x8bde0b",
      "gasUsed": "0x26d21",
      "effectiveGasPrice": "0x8b98de4",
      "from": "0x3324533837e165829b8e581b4f471125c9d8c66a",
      "to": "0x5de19fe5e05fd56882acd533ce303def8c5c5705",
      "contractAddress": null
    }
  ],
  "libraries": [],
  "pending": [],
  "returns": {},
  "timestamp": 1757411451007,
  "chain": 11155111,
  "commit": null
}