{
  "transactions": [
    {
      "hash": "0xe6bb243c776ac7172b848553037726480ef5405d0540f14fe92abbe774105ea3",
      "transactionType": "CALL",
      "contractName": null,
      "contractAddress": "0xfff9976782d46cc05630d1f6ebab18b2324d6b14",
      "function": "approve(address,uint256)",
      "arguments": [
        "0x000000000022D473030F116dDEE9F6B43aC78BA3",
        "115792089237316195423570985008687907853269984665640564039457584007913129639935"
      ],
      "transaction": {
        "from": "0x3324533837e165829b8e581b4f471125c9d8c66a",
        "to": "0xfff9976782d46cc05630d1f6ebab18b2324d6b14",
        "gas": "0x8e76",
        "value": "0x0",
        "input": "0x095ea7b3000000000000000000000000000000000022d473030f116ddee9f6b43ac78ba3ffffffffffffffffffffffffffffffffffffffffffffffffffffffffffffffff",
        "nonce": "0x2d",
        "chainId": "0xaa36a7"
      },
      "additionalContracts": [],
      "isFixedGasLimit": false
    },
    {
      "hash": "0xa05f92b777753675e0df05f82fe00263f429ce9e936a6324a4f14701f0c67c0a",
      "transactionType": "CALL",
      "contractName": null,
      "contractAddress": "0xd98f9971773045735c62cd8f1a70047f81b9a468",
      "function": "approve(address,uint256)",
      "arguments": [
        "0x000000000022D473030F116dDEE9F6B43aC78BA3",
        "115792089237316195423570985008687907853269984665640564039457584007913129639935"
      ],
      "transaction": {
        "from": "0x3324533837e165829b8e581b4f471125c9d8c66a",
        "to": "0xd98f9971773045735c62cd8f1a70047f81b9a468",
        "gas": "0x8df2",
        "value": "0x0",
        "input": "0x095ea7b3000000000000000000000000000000000022d473030f116ddee9f6b43ac78ba3ffffffffffffffffffffffffffffffffffffffffffffffffffffffffffffffff",
        "nonce": "0x2e",
        "chainId": "0xaa36a7"
      },
      "additionalContracts": [],
      "isFixedGasLimit": false
    },
    {
      "hash": "0x54fc465fcc6144b63b6e27f43e3c5349cb2461e57043701df3a28cb7d2545de4",
      "transactionType": "CALL",
      "contractName": null,
      "contractAddress": "0x000000000022d473030f116ddee9f6b43ac78ba3",
      "function": "approve(address,address,uint160,uint48)",
      "arguments": [
        "0xfFf9976782d46CC05630D1f6eBAb18b2324d6B14",
        "0x5de19fE5E05fD56882ACd533cE303def8c5C5705",
        "1461501637330902918203684832716283019655932542975",
        "1760005188"
      ],
      "transaction": {
        "from": "0x3324533837e165829b8e581b4f471125c9d8c66a",
        "to": "0x000000000022d473030f116ddee9f6b43ac78ba3",
        "gas": "0xa59b",
        "value": "0x0",
        "input": "0x87517c45000000000000000000000000fff9976782d46cc05630d1f6ebab18b2324d6b140000000000000000000000005de19fe5e05fd56882acd533ce303def8c5c5705000000000000000000000000ffffffffffffffffffffffffffffffffffffffff0000000000000000000000000000000000000000000000000000000068e78c44",
        "nonce": "0x2f",
        "chainId": "0xaa36a7"
      },
      "additionalContracts": [],
      "isFixedGasLimit": false
    },
    {
      "hash": "0x7aa42a5449fb8d7ffabcc5948a269af5112c43d207a66d0be2ff0d72cab244b0",
      "transactionType": "CALL",
      "contractName": null,
      "contractAddress": "0x000000000022d473030f116ddee9f6b43ac78ba3",
      "function": "approve(address,address,uint160,uint48)",
      "arguments": [
        "0xD98f9971773045735C62cD8f1a70047f81b9a468",
        "0x5de19fE5E05fD56882ACd533cE303def8c5C5705",
        "1461501637330902918203684832716283019655932542975",
        "1760005188"
      ],
      "transaction": {
        "from": "0x3324533837e165829b8e581b4f471125c9d8c66a",
        "to": "0x000000000022d473030f116ddee9f6b43ac78ba3",
        "gas": "0xa59b",
        "value": "0x0",
        "input": "0x87517c45000000000000000000000000d98f9971773045735c62cd8f1a70047f81b9a4680000000000000000000000005de19fe5e05fd56882acd533ce303def8c5c5705000000000000000000000000ffffffffffffffffffffffffffffffffffffffff0000000000000000000000000000000000000000000000000000000068e78c44",
        "nonce": "0x30",
        "chainId": "0xaa36a7"
      },
      "additionalContracts": [],
      "isFixedGasLimit": false
    },
    {
      "hash": "0x90c6d46bafe80dcaee8d06de43c414b3ebdbad28cba88e72df5bdf196235edf4",
      "transactionType": "CALL",
      "contractName": null,
      "contractAddress": "0x5de19fe5e05fd56882acd533ce303def8c5c5705",
      "function": "modifyLiquidities(bytes,uint256)",
      "arguments": [
        "0x000000000000000000000000000000000000000000000000000000000000004000000000000000000000000000000000000000000000000000000000000000800000000000000000000000000000000000000000000000000000000000000002000d00000000000000000000000000000000000000000000000000000000000000000000000000000000000000000000000000000000000000000000000000020000000000000000000000000000000000000000000000000000000000000040000000000000000000000000000000000000000000000000000000000000012000000000000000000000000000000000000000000000000000000000000000c000000000000000000000000000000000000000000000000000000000000000010000000000000000000000000000000000000000000000000011c37937e0800000000000000000000000000000000000000000000000000000b1a2bc2ec50000000000000000000000000000000000000000000000000002b5e3af16b188000000000000000000000000000000000000000000000000000000000000000000a000000000000000000000000000000000000000000000000000000000000000000000000000000000000000000000000000000000000000000000000000000040000000000000000000000000d98f9971773045735c62cd8f1a70047f81b9a468000000000000000000000000fff9976782d46cc05630d1f6ebab18b2324d6b14",
        "1757413248"
      ],
      "transaction": {
        "from": "0x3324533837e165829b8e581b4f471125c9d8c66a",
        "to": "0x5de19fe5e05fd56882acd533ce303def8c5c5705",
        "gas": "0x2fbc5",
        "value": "0x0",
        "input": "0xdd46508f00000000000000000000000000000000000000000000000000000000000000400000000000000000000000000000000000000000000000000000000068bfff800000000000000000000000000000000000000000000000000000000000000220000000000000000000000000000000000000000000000000000000000000004000000000000000000000000000000000000000000000000000000000000000800000000000000000000000000000000000000000000000000000000000000002000d00000000000000000000000000000000000000000000000000000000000000000000000000000000000000000000000000000000000000000000000000020000000000000000000000000000000000000000000000000000000000000040000000000000000000000000000000000000000000000000000000000000012000000000000000000000000000000000000000000000000000000000000000c000000000000000000000000000000000000000000000000000000000000000010000000000000000000000000000000000000000000000000011c37937e0800000000000000000000000000000000000000000000000000000b1a2bc2ec50000000000000000000000000000000000000000000000000002b5e3af16b188000000000000000000000000000000000000000000000000000000000000000000a000000000000000000000000000000000000000000000000000000000000000000000000000000000000000000000000000000000000000000000000000000040000000000000000000000000d98f9971773045735c62cd8f1a70047f81b9a468000000000000000000000000fff9976782d46cc05630d1f6ebab18b2324d6b14",
        "nonce": "0x31",
        "chainId": "0xaa36a7"
      },
      "additionalContracts": [],
      "isFixedGasLimit": false
    }
  ],
  "receipts": [
    {
      "status": "0x1",
      "cumulativeGasUsed": "0xd29e94",
      "logs": [
        {
          "address": "0xfff9976782d46cc05630d1f6ebab18b2324d6b14",
          "topics": [
            "0x8c5be1e5ebec7d5bd14f71427d1e84f3dd0314c0f7b2291e5b200ac8c7c3b925",
            "0x0000000000000000000000003324533837e165829b8e581b4f471125c9d8c66a",
            "0x000000000000000000000000000000000022d473030f116ddee9f6b43ac78ba3"
          ],
          "data": "0xffffffffffffffffffffffffffffffffffffffffffffffffffffffffffffffff",
          "blockHash": "0x3799d825e6d9edf90ae4bf42e911faf6b9006366fc29377ea1b6645da04cae27",
          "blockNumber": "0x8bde9c",
          "blockTimestamp": "0x68bfff68",
          "transactionHash": "0xe6bb243c776ac7172b848553037726480ef5405d0540f14fe92abbe774105ea3",
          "transactionIndex": "0x61",
          "logIndex": "0x9e",
          "removed": false
        }
      ],
      "logsBloom": "0x00000000000000000000000000000000000000000000000000000000000000000000000000000000000000000000000000000000800000000000000000200000004000000000000000004000000000000000000000000800000000000000000000000000000000000000000000000000000000000000000000000000000000000040000000000000000000200000000000000000000000000000000000000000020020000000000000000000000000000000000000000000000000000000000000000000000000000002000000000000000000000000000000000000000000000010001000000000000000000000000000000000000000000000000000000000",
      "type": "0x2",
      "transactionHash": "0xe6bb243c776ac7172b848553037726480ef5405d0540f14fe92abbe774105ea3",
      "transactionIndex": "0x61",
      "blockHash": "0x3799d825e6d9edf90ae4bf42e911faf6b9006366fc29377ea1b6645da04cae27",
      "blockNumber": "0x8bde9c",
      "gasUsed": "0x6724",
      "effectiveGasPrice": "0xefdfa9c",
      "from": "0x3324533837e165829b8e581b4f471125c9d8c66a",
      "to": "0xfff9976782d46cc05630d1f6ebab18b2324d6b14",
      "contractAddress": null
    },
    {
      "status": "0x1",
      "cumulativeGasUsed": "0xd30559",
      "logs": [
        {
          "address": "0xd98f9971773045735c62cd8f1a70047f81b9a468",
          "topics": [
            "0x8c5be1e5ebec7d5bd14f71427d1e84f3dd0314c0f7b2291e5b200ac8c7c3b925",
            "0x0000000000000000000000003324533837e165829b8e581b4f471125c9d8c66a",
            "0x000000000000000000000000000000000022d473030f116ddee9f6b43ac78ba3"
          ],
          "data": "0xffffffffffffffffffffffffffffffffffffffffffffffffffffffffffffffff",
          "blockHash": "0x3799d825e6d9edf90ae4bf42e911faf6b9006366fc29377ea1b6645da04cae27",
          "blockNumber": "0x8bde9c",
          "blockTimestamp": "0x68bfff68",
          "transactionHash": "0xa05f92b777753675e0df05f82fe00263f429ce9e936a6324a4f14701f0c67c0a",
          "transactionIndex": "0x62",
          "logIndex": "0x9f",
          "removed": false
        }
      ],
      "logsBloom": "0x00000000000000000000000000000000000000000000000000000000000000000000000000000000000000000000000000000000800000000000400000200000004000000000000000004000000000000000000000000800000000000000000000000000000000000000000000000000000000000000000000000000000000000000000000000000000000200000000000000000000000000000000000000000020000000000000000000000000000000000000000000000000000000000000000000000100000000000000000000000000000000000000000000000000000000010001000000000000000000000000000000004000000000000000000000000",
      "type": "0x2",
      "transactionHash": "0xa05f92b777753675e0df05f82fe00263f429ce9e936a6324a4f14701f0c67c0a",
      "transactionIndex": "0x62",
      "blockHash": "0x3799d825e6d9edf90ae4bf42e911faf6b9006366fc29377ea1b6645da04cae27",
      "blockNumber": "0x8bde9c",
      "gasUsed": "0x66c5",
      "effectiveGasPrice": "0xefdfa9c",
      "from": "0x3324533837e165829b8e581b4f471125c9d8c66a",
      "to": "0xd98f9971773045735c62cd8f1a70047f81b9a468",
      "contractAddress": null
    },
    {
      "status": "0x1",
      "cumulativeGasUsed": "0xd37d3f",
      "logs": [
        {
          "address": "0x000000000022d473030f116ddee9f6b43ac78ba3",
          "topics": [
            "0xda9fa7c1b00402c17d0161b249b1ab8bbec047c5a52207b9c112deffd817036b",
            "0x0000000000000000000000003324533837e165829b8e581b4f471125c9d8c66a",
            "0x000000000000000000000000fff9976782d46cc05630d1f6ebab18b2324d6b14",
            "0x0000000000000000000000005de19fe5e05fd56882acd533ce303def8c5c5705"
          ],
          "data": "0x000000000000000000000000ffffffffffffffffffffffffffffffffffffffff0000000000000000000000000000000000000000000000000000000068e78c44",
          "blockHash": "0x3799d825e6d9edf90ae4bf42e911faf6b9006366fc29377ea1b6645da04cae27",
          "blockNumber": "0x8bde9c",
          "blockTimestamp": "0x68bfff68",
          "transactionHash": "0x54fc465fcc6144b63b6e27f43e3c5349cb2461e57043701df3a28cb7d2545de4",
          "transactionIndex": "0x63",
          "logIndex": "0xa0",
          "removed": false
        }
      ],
      "logsBloom": "0x00010400001000000000000000000000000000000000000000000000000000000000400000000000000000000000000000000800000000000000000000080000004000000000000000000000000000000000000000000000000000000000000000000000000000000000000000000000000000000000000000100000000000000020000000000000000000200000000000000000000000000000000000000000000000000000000000000000000000000000000000000000000000080000000000000000000000000000000001000000000000000000000040000000000000000000001000000000000000000000000000000000000000000000000000000400",
      "type": "0x2",
      "transactionHash": "0x54fc465fcc6144b63b6e27f43e3c5349cb2461e57043701df3a28cb7d2545de4",
      "transactionIndex": "0x63",
      "blockHash": "0x3799d825e6d9edf90ae4bf42e911faf6b9006366fc29377ea1b6645da04cae27",
      "blockNumber": "0x8bde9c",
      "gasUsed": "0x77e6",
      "effectiveGasPrice": "0xefdfa9c",
      "from": "0x3324533837e165829b8e581b4f471125c9d8c66a",
      "to": "0x000000000022d473030f116ddee9f6b43ac78ba3",
      "contractAddress": null
    },
    {
      "status": "0x1",
      "cumulativeGasUsed": "0xd3f525",
      "logs": [
        {
          "address": "0x000000000022d473030f116ddee9f6b43ac78ba3",
          "topics": [
            "0xda9fa7c1b00402c17d0161b249b1ab8bbec047c5a52207b9c112deffd817036b",
            "0x0000000000000000000000003324533837e165829b8e581b4f471125c9d8c66a",
            "0x000000000000000000000000d98f9971773045735c62cd8f1a70047f81b9a468",
            "0x0000000000000000000000005de19fe5e05fd56882acd533ce303def8c5c5705"
          ],
          "data": "0x000000000000000000000000ffffffffffffffffffffffffffffffffffffffff0000000000000000000000000000000000000000000000000000000068e78c44",
          "blockHash": "0x3799d825e6d9edf90ae4bf42e911faf6b9006366fc29377ea1b6645da04cae27",
          "blockNumber": "0x8bde9c",
          "blockTimestamp": "0x68bfff68",
          "transactionHash": "0x7aa42a5449fb8d7ffabcc5948a269af5112c43d207a66d0be2ff0d72cab244b0",
          "transactionIndex": "0x64",
          "logIndex": "0xa1",
          "removed": false
        }
      ],
      "logsBloom": "0x00010400000000008000000000000000000000000000000000000000000000000000400000000000000000000000000000000000000000000000000000080000004000000000000000000000000000000000000000000000000000000000000000000000000000000000000000000000000000000000000000100000000000000020000000000000000000200000000000000000000000000000000000000000000008000000000000000000000000000000000000000000000000080000000000000000000000000000000000000000000000000000000040000000000000000000001000000010000000000000000000000000000000000000000000000400",
      "type": "0x2",
      "transactionHash": "0x7aa42a5449fb8d7ffabcc5948a269af5112c43d207a66d0be2ff0d72cab244b0",
      "transactionIndex": "0x64",
      "blockHash": "0x3799d825e6d9edf90ae4bf42e911faf6b9006366fc29377ea1b6645da04cae27",
      "blockNumber": "0x8bde9c",
      "gasUsed": "0x77e6",
      "effectiveGasPrice": "0xefdfa9c",
      "from": "0x3324533837e165829b8e581b4f471125c9d8c66a",
      "to": "0x000000000022d473030f116ddee9f6b43ac78ba3",
      "contractAddress": null
    },
    {
      "status": "0x1",
      "cumulativeGasUsed": "0xd61e1a",
      "logs": [
        {
          "address": "0xe03a1074c86cfedd5c142c4f04f1a1536e203543",
          "topics": [
            "0xf208f4912782fd25c7f114ca3723a2d5dd6f3bcc3ac8db5af63baa85f711d5ec",
            "0xe4d71c27eb09d89e5f11945417505181a7e3724bddbee60e42efc49a2a7f022c",
            "0x0000000000000000000000005de19fe5e05fd56882acd533ce303def8c5c5705"
          ],
          "data": "0xffffffffffffffffffffffffffffffffffffffffffffffffffffffffffffff8800000000000000000000000000000000000000000000000000000000000000780000000000000000000000000000000000000000000000000011c37937e080000000000000000000000000000000000000000000000000000000000000000001",
          "blockHash": "0x3799d825e6d9edf90ae4bf42e911faf6b9006366fc29377ea1b6645da04cae27",
          "blockNumber": "0x8bde9c",
          "blockTimestamp": "0x68bfff68",
          "transactionHash": "0x90c6d46bafe80dcaee8d06de43c414b3ebdbad28cba88e72df5bdf196235edf4",
          "transactionIndex": "0x65",
          "logIndex": "0xa2",
          "removed": false
        },
        {
          "address": "0xfff9976782d46cc05630d1f6ebab18b2324d6b14",
          "topics": [
            "0xddf252ad1be2c89b69c2b068fc378daa952ba7f163c4a11628f55a4df523b3ef",
            "0x0000000000000000000000003324533837e165829b8e581b4f471125c9d8c66a",
            "0x000000000000000000000000e03a1074c86cfedd5c142c4f04f1a1536e203543"
          ],
          "data": "0x0000000000000000000000000000000000000000000000000000363478e6c23f",
          "blockHash": "0x3799d825e6d9edf90ae4bf42e911faf6b9006366fc29377ea1b6645da04cae27",
          "blockNumber": "0x8bde9c",
          "blockTimestamp": "0x68bfff68",
          "transactionHash": "0x90c6d46bafe80dcaee8d06de43c414b3ebdbad28cba88e72df5bdf196235edf4",
          "transactionIndex": "0x65",
          "logIndex": "0xa3",
          "removed": false
        }
      ],
      "logsBloom": "0x00000400000000000000000000000000000000000000000000000000000000000000400000000000000000000000000000000100000000000000000000000000004000000000000000000028000000000000000000000000000000000000000000000000000000000000000080000000000000000000100000100010000000000040000001000000000010200000000000000000000000000000000000000000000024000000000000000000000000000000000000000000000000000000000000000002000000000002000000000400000000020000000000001000000000001000001000000000000000000000000004000000000000000000000000000000",
      "type": "0x2",
      "transactionHash": "0x90c6d46bafe80dcaee8d06de43c414b3ebdbad28cba88e72df5bdf196235edf4",
      "transactionIndex": "0x65",
      "blockHash": "0x3799d825e6d9edf90ae4bf42e911faf6b9006366fc29377ea1b6645da04cae27",
      "blockNumber": "0x8bde9c",
      "gasUsed": "0x228f5",
      "effectiveGasPrice": "0xefdfa9c",
      "from": "0x3324533837e165829b8e581b4f471125c9d8c66a",
      "to": "0x5de19fe5e05fd56882acd533ce303def8c5c5705",
      "contractAddress": null
    }
  ],
  "libraries": [],
  "pending": [],
  "returns": {},
  "timestamp": 1757413227013,
  "chain": 11155111,
  "commit": null
}