{
  "transactions": [
    {
      "hash": "0x9dbb05ccb253c699c67bfc388a102d76e9966f7d7d613b8a82c234c68b144806",
      "transactionType": "CALL",
      "contractName": null,
      "contractAddress": "0xfff9976782d46cc05630d1f6ebab18b2324d6b14",
      "function": "approve(address,uint256)",
      "arguments": [
        "0x000000000022D473030F116dDEE9F6B43aC78BA3",
        "115792089237316195423570985008687907853269984665640564039457584007913129639935"
      ],
      "transaction": {
        "from": "0x3324533837e165829b8e581b4f471125c9d8c66a",
        "to": "0xfff9976782d46cc05630d1f6ebab18b2324d6b14",
        "gas": "0x8e76",
        "value": "0x0",
        "input": "0x095ea7b3000000000000000000000000000000000022d473030f116ddee9f6b43ac78ba3ffffffffffffffffffffffffffffffffffffffffffffffffffffffffffffffff",
        "nonce": "0x1b",
        "chainId": "0xaa36a7"
      },
      "additionalContracts": [],
      "isFixedGasLimit": false
    },
    {
      "hash": "0xf7948f4412ead6b3c685fcb1a9c4b92a959264c95d2b5124389d3ae00c144410",
      "transactionType": "CALL",
      "contractName": null,
      "contractAddress": "0xd98f9971773045735c62cd8f1a70047f81b9a468",
      "function": "approve(address,uint256)",
      "arguments": [
        "0x000000000022D473030F116dDEE9F6B43aC78BA3",
        "115792089237316195423570985008687907853269984665640564039457584007913129639935"
      ],
      "transaction": {
        "from": "0x3324533837e165829b8e581b4f471125c9d8c66a",
        "to": "0xd98f9971773045735c62cd8f1a70047f81b9a468",
        "gas": "0x8df2",
        "value": "0x0",
        "input": "0x095ea7b3000000000000000000000000000000000022d473030f116ddee9f6b43ac78ba3ffffffffffffffffffffffffffffffffffffffffffffffffffffffffffffffff",
        "nonce": "0x1c",
        "chainId": "0xaa36a7"
      },
      "additionalContracts": [],
      "isFixedGasLimit": false
    },
    {
      "hash": "0x06933e81ff503de5b86c617e60bddd8b5022f615108c9c68874062e8702315cd",
      "transactionType": "CALL",
      "contractName": null,
      "contractAddress": "0x000000000022d473030f116ddee9f6b43ac78ba3",
      "function": "approve(address,address,uint160,uint48)",
      "arguments": [
        "0xfFf9976782d46CC05630D1f6eBAb18b2324d6B14",
        "0x5de19fE5E05fD56882ACd533cE303def8c5C5705",
        "1461501637330902918203684832716283019655932542975",
        "1760002248"
      ],
      "transaction": {
        "from": "0x3324533837e165829b8e581b4f471125c9d8c66a",
        "to": "0x000000000022d473030f116ddee9f6b43ac78ba3",
        "gas": "0xa59b",
        "value": "0x0",
        "input": "0x87517c45000000000000000000000000fff9976782d46cc05630d1f6ebab18b2324d6b140000000000000000000000005de19fe5e05fd56882acd533ce303def8c5c5705000000000000000000000000ffffffffffffffffffffffffffffffffffffffff0000000000000000000000000000000000000000000000000000000068e780c8",
        "nonce": "0x1d",
        "chainId": "0xaa36a7"
      },
      "additionalContracts": [],
      "isFixedGasLimit": false
    },
    {
      "hash": "0x5c5b5b3a277dc2236f2ef626049c19e7c36ae1c262c5c80cf7e22e25093723b0",
      "transactionType": "CALL",
      "contractName": null,
      "contractAddress": "0x000000000022d473030f116ddee9f6b43ac78ba3",
      "function": "approve(address,address,uint160,uint48)",
      "arguments": [
        "0xD98f9971773045735C62cD8f1a70047f81b9a468",
        "0x5de19fE5E05fD56882ACd533cE303def8c5C5705",
        "1461501637330902918203684832716283019655932542975",
        "1760002248"
      ],
      "transaction": {
        "from": "0x3324533837e165829b8e581b4f471125c9d8c66a",
        "to": "0x000000000022d473030f116ddee9f6b43ac78ba3",
        "gas": "0xa59b",
        "value": "0x0",
        "input": "0x87517c45000000000000000000000000d98f9971773045735c62cd8f1a70047f81b9a4680000000000000000000000005de19fe5e05fd56882acd533ce303def8c5c5705000000000000000000000000ffffffffffffffffffffffffffffffffffffffff0000000000000000000000000000000000000000000000000000000068e780c8",
        "nonce": "0x1e",
        "chainId": "0xaa36a7"
      },
      "additionalContracts": [],
      "isFixedGasLimit": false
    },
    {
      "hash": "0xa2c307b5b5435188988f376913331a94fd34bd3b5de4bc09d538fd7025af29e3",
      "transactionType": "CALL",
      "contractName": null,
      "contractAddress": "0x5de19fe5e05fd56882acd533ce303def8c5c5705",
      "function": "modifyLiquidities(bytes,uint256)",
      "arguments": [
        "0x000000000000000000000000000000000000000000000000000000000000004000000000000000000000000000000000000000000000000000000000000000800000000000000000000000000000000000000000000000000000000000000002000d00000000000000000000000000000000000000000000000000000000000000000000000000000000000000000000000000000000000000000000000000020000000000000000000000000000000000000000000000000000000000000040000000000000000000000000000000000000000000000000000000000000012000000000000000000000000000000000000000000000000000000000000000c000000000000000000000000000000000000000000000000000000000000000010000000000000000000000000000000000000000000000000011c37937e0800000000000000000000000000000000000000000000000000000b1a2bc2ec50000000000000000000000000000000000000000000000000002b5e3af16b188000000000000000000000000000000000000000000000000000000000000000000a000000000000000000000000000000000000000000000000000000000000000000000000000000000000000000000000000000000000000000000000000000040000000000000000000000000d98f9971773045735c62cd8f1a70047f81b9a468000000000000000000000000fff9976782d46cc05630d1f6ebab18b2324d6b14",
        "1757410308"
      ],
      "transaction": {
        "from": "0x3324533837e165829b8e581b4f471125c9d8c66a",
        "to": "0x5de19fe5e05fd56882acd533ce303def8c5c5705",
        "gas": "0x38c66",
        "value": "0x0",
        "input": "0xdd46508f00000000000000000000000000000000000000000000000000000000000000400000000000000000000000000000000000000000000000000000000068bff4040000000000000000000000000000000000000000000000000000000000000220000000000000000000000000000000000000000000000000000000000000004000000000000000000000000000000000000000000000000000000000000000800000000000000000000000000000000000000000000000000000000000000002000d00000000000000000000000000000000000000000000000000000000000000000000000000000000000000000000000000000000000000000000000000020000000000000000000000000000000000000000000000000000000000000040000000000000000000000000000000000000000000000000000000000000012000000000000000000000000000000000000000000000000000000000000000c000000000000000000000000000000000000000000000000000000000000000010000000000000000000000000000000000000000000000000011c37937e0800000000000000000000000000000000000000000000000000000b1a2bc2ec50000000000000000000000000000000000000000000000000002b5e3af16b188000000000000000000000000000000000000000000000000000000000000000000a000000000000000000000000000000000000000000000000000000000000000000000000000000000000000000000000000000000000000000000000000000040000000000000000000000000d98f9971773045735c62cd8f1a70047f81b9a468000000000000000000000000fff9976782d46cc05630d1f6ebab18b2324d6b14",
        "nonce": "0x1f",
        "chainId": "0xaa36a7"
      },
      "additionalContracts": [],
      "isFixedGasLimit": false
    }
  ],
  "receipts": [
    {
      "status": "0x1",
      "cumulativeGasUsed": "0xbebd36",
      "logs": [
        {
          "address": "0xfff9976782d46cc05630d1f6ebab18b2324d6b14",
          "topics": [
            "0x8c5be1e5ebec7d5bd14f71427d1e84f3dd0314c0f7b2291e5b200ac8c7c3b925",
            "0x0000000000000000000000003324533837e165829b8e581b4f471125c9d8c66a",
            "0x000000000000000000000000000000000022d473030f116ddee9f6b43ac78ba3"
          ],
          "data": "0xffffffffffffffffffffffffffffffffffffffffffffffffffffffffffffffff",
          "blockHash": "0x0ac64c2fd615f58799bdafb1afa5ebf1c2b91296ea6ffd92bb08dc8b9e733287",
          "blockNumber": "0x8bddad",
          "blockTimestamp": "0x68bff3f8",
          "transactionHash": "0x9dbb05ccb253c699c67bfc388a102d76e9966f7d7d613b8a82c234c68b144806",
          "transactionIndex": "0x8b",
          "logIndex": "0xbc",
          "removed": false
        }
      ],
      "logsBloom": "0x00000000000000000000000000000000000000000000000000000000000000000000000000000000000000000000000000000000800000000000000000200000004000000000000000004000000000000000000000000800000000000000000000000000000000000000000000000000000000000000000000000000000000000040000000000000000000200000000000000000000000000000000000000000020020000000000000000000000000000000000000000000000000000000000000000000000000000002000000000000000000000000000000000000000000000010001000000000000000000000000000000000000000000000000000000000",
      "type": "0x2",
      "transactionHash": "0x9dbb05ccb253c699c67bfc388a102d76e9966f7d7d613b8a82c234c68b144806",
      "transactionIndex": "0x8b",
      "blockHash": "0x0ac64c2fd615f58799bdafb1afa5ebf1c2b91296ea6ffd92bb08dc8b9e733287",
      "blockNumber": "0x8bddad",
      "gasUsed": "0x6724",
      "effectiveGasPrice": "0x73f1a10",
      "from": "0x3324533837e165829b8e581b4f471125c9d8c66a",
      "to": "0xfff9976782d46cc05630d1f6ebab18b2324d6b14",
      "contractAddress": null
    },
    {
      "status": "0x1",
      "cumulativeGasUsed": "0xbf23fb",
      "logs": [
        {
          "address": "0xd98f9971773045735c62cd8f1a70047f81b9a468",
          "topics": [
            "0x8c5be1e5ebec7d5bd14f71427d1e84f3dd0314c0f7b2291e5b200ac8c7c3b925",
            "0x0000000000000000000000003324533837e165829b8e581b4f471125c9d8c66a",
            "0x000000000000000000000000000000000022d473030f116ddee9f6b43ac78ba3"
          ],
          "data": "0xffffffffffffffffffffffffffffffffffffffffffffffffffffffffffffffff",
          "blockHash": "0x0ac64c2fd615f58799bdafb1afa5ebf1c2b91296ea6ffd92bb08dc8b9e733287",
          "blockNumber": "0x8bddad",
          "blockTimestamp": "0x68bff3f8",
          "transactionHash": "0xf7948f4412ead6b3c685fcb1a9c4b92a959264c95d2b5124389d3ae00c144410",
          "transactionIndex": "0x8c",
          "logIndex": "0xbd",
          "removed": false
        }
      ],
      "logsBloom": "0x00000000000000000000000000000000000000000000000000000000000000000000000000000000000000000000000000000000800000000000400000200000004000000000000000004000000000000000000000000800000000000000000000000000000000000000000000000000000000000000000000000000000000000000000000000000000000200000000000000000000000000000000000000000020000000000000000000000000000000000000000000000000000000000000000000000100000000000000000000000000000000000000000000000000000000010001000000000000000000000000000000004000000000000000000000000",
      "type": "0x2",
      "transactionHash": "0xf7948f4412ead6b3c685fcb1a9c4b92a959264c95d2b5124389d3ae00c144410",
      "transactionIndex": "0x8c",
      "blockHash": "0x0ac64c2fd615f58799bdafb1afa5ebf1c2b91296ea6ffd92bb08dc8b9e733287",
      "blockNumber": "0x8bddad",
      "gasUsed": "0x66c5",
      "effectiveGasPrice": "0x73f1a10",
      "from": "0x3324533837e165829b8e581b4f471125c9d8c66a",
      "to": "0xd98f9971773045735c62cd8f1a70047f81b9a468",
      "contractAddress": null
    },
    {
      "status": "0x1",
      "cumulativeGasUsed": "0xbf9be1",
      "logs": [
        {
          "address": "0x000000000022d473030f116ddee9f6b43ac78ba3",
          "topics": [
            "0xda9fa7c1b00402c17d0161b249b1ab8bbec047c5a52207b9c112deffd817036b",
            "0x0000000000000000000000003324533837e165829b8e581b4f471125c9d8c66a",
            "0x000000000000000000000000fff9976782d46cc05630d1f6ebab18b2324d6b14",
            "0x0000000000000000000000005de19fe5e05fd56882acd533ce303def8c5c5705"
          ],
          "data": "0x000000000000000000000000ffffffffffffffffffffffffffffffffffffffff0000000000000000000000000000000000000000000000000000000068e780c8",
          "blockHash": "0x0ac64c2fd615f58799bdafb1afa5ebf1c2b91296ea6ffd92bb08dc8b9e733287",
          "blockNumber": "0x8bddad",
          "blockTimestamp": "0x68bff3f8",
          "transactionHash": "0x06933e81ff503de5b86c617e60bddd8b5022f615108c9c68874062e8702315cd",
          "transactionIndex": "0x8d",
          "logIndex": "0xbe",
          "removed": false
        }
      ],
      "logsBloom": "0x00010400001000000000000000000000000000000000000000000000000000000000400000000000000000000000000000000800000000000000000000080000004000000000000000000000000000000000000000000000000000000000000000000000000000000000000000000000000000000000000000100000000000000020000000000000000000200000000000000000000000000000000000000000000000000000000000000000000000000000000000000000000000080000000000000000000000000000000001000000000000000000000040000000000000000000001000000000000000000000000000000000000000000000000000000400",
      "type": "0x2",
      "transactionHash": "0x06933e81ff503de5b86c617e60bddd8b5022f615108c9c68874062e8702315cd",
      "transactionIndex": "0x8d",
      "blockHash": "0x0ac64c2fd615f58799bdafb1afa5ebf1c2b91296ea6ffd92bb08dc8b9e733287",
      "blockNumber": "0x8bddad",
      "gasUsed": "0x77e6",
      "effectiveGasPrice": "0x73f1a10",
      "from": "0x3324533837e165829b8e581b4f471125c9d8c66a",
      "to": "0x000000000022d473030f116ddee9f6b43ac78ba3",
      "contractAddress": null
    },
    {
      "status": "0x1",
      "cumulativeGasUsed": "0xc013c7",
      "logs": [
        {
          "address": "0x000000000022d473030f116ddee9f6b43ac78ba3",
          "topics": [
            "0xda9fa7c1b00402c17d0161b249b1ab8bbec047c5a52207b9c112deffd817036b",
            "0x0000000000000000000000003324533837e165829b8e581b4f471125c9d8c66a",
            "0x000000000000000000000000d98f9971773045735c62cd8f1a70047f81b9a468",
            "0x0000000000000000000000005de19fe5e05fd56882acd533ce303def8c5c5705"
          ],
          "data": "0x000000000000000000000000ffffffffffffffffffffffffffffffffffffffff0000000000000000000000000000000000000000000000000000000068e780c8",
          "blockHash": "0x0ac64c2fd615f58799bdafb1afa5ebf1c2b91296ea6ffd92bb08dc8b9e733287",
          "blockNumber": "0x8bddad",
          "blockTimestamp": "0x68bff3f8",
          "transactionHash": "0x5c5b5b3a277dc2236f2ef626049c19e7c36ae1c262c5c80cf7e22e25093723b0",
          "transactionIndex": "0x8e",
          "logIndex": "0xbf",
          "removed": false
        }
      ],
      "logsBloom": "0x00010400000000008000000000000000000000000000000000000000000000000000400000000000000000000000000000000000000000000000000000080000004000000000000000000000000000000000000000000000000000000000000000000000000000000000000000000000000000000000000000100000000000000020000000000000000000200000000000000000000000000000000000000000000008000000000000000000000000000000000000000000000000080000000000000000000000000000000000000000000000000000000040000000000000000000001000000010000000000000000000000000000000000000000000000400",
      "type": "0x2",
      "transactionHash": "0x5c5b5b3a277dc2236f2ef626049c19e7c36ae1c262c5c80cf7e22e25093723b0",
      "transactionIndex": "0x8e",
      "blockHash": "0x0ac64c2fd615f58799bdafb1afa5ebf1c2b91296ea6ffd92bb08dc8b9e733287",
      "blockNumber": "0x8bddad",
      "gasUsed": "0x77e6",
      "effectiveGasPrice": "0x73f1a10",
      "from": "0x3324533837e165829b8e581b4f471125c9d8c66a",
      "to": "0x000000000022d473030f116ddee9f6b43ac78ba3",
      "contractAddress": null
    },
    {
      "status": "0x1",
      "cumulativeGasUsed": "0xc280e8",
      "logs": [
        {
          "address": "0xe03a1074c86cfedd5c142c4f04f1a1536e203543",
          "topics": [
            "0xf208f4912782fd25c7f114ca3723a2d5dd6f3bcc3ac8db5af63baa85f711d5ec",
            "0xe4d71c27eb09d89e5f11945417505181a7e3724bddbee60e42efc49a2a7f022c",
            "0x0000000000000000000000005de19fe5e05fd56882acd533ce303def8c5c5705"
          ],
          "data": "0xffffffffffffffffffffffffffffffffffffffffffffffffffffffffffffff8800000000000000000000000000000000000000000000000000000000000000780000000000000000000000000000000000000000000000000011c37937e080000000000000000000000000000000000000000000000000000000000000000001",
          "blockHash": "0x0ac64c2fd615f58799bdafb1afa5ebf1c2b91296ea6ffd92bb08dc8b9e733287",
          "blockNumber": "0x8bddad",
          "blockTimestamp": "0x68bff3f8",
          "transactionHash": "0xa2c307b5b5435188988f376913331a94fd34bd3b5de4bc09d538fd7025af29e3",
          "transactionIndex": "0x8f",
          "logIndex": "0xc0",
          "removed": false
        },
        {
          "address": "0xd98f9971773045735c62cd8f1a70047f81b9a468",
          "topics": [
            "0xddf252ad1be2c89b69c2b068fc378daa952ba7f163c4a11628f55a4df523b3ef",
            "0x0000000000000000000000003324533837e165829b8e581b4f471125c9d8c66a",
            "0x000000000000000000000000e03a1074c86cfedd5c142c4f04f1a1536e203543"
          ],
          "data": "0x00000000000000000000000000000000000000000000000000001b33a8c592f5",
          "blockHash": "0x0ac64c2fd615f58799bdafb1afa5ebf1c2b91296ea6ffd92bb08dc8b9e733287",
          "blockNumber": "0x8bddad",
          "blockTimestamp": "0x68bff3f8",
          "transactionHash": "0xa2c307b5b5435188988f376913331a94fd34bd3b5de4bc09d538fd7025af29e3",
          "transactionIndex": "0x8f",
          "logIndex": "0xc1",
          "removed": false
        },
        {
          "address": "0xfff9976782d46cc05630d1f6ebab18b2324d6b14",
          "topics": [
            "0xddf252ad1be2c89b69c2b068fc378daa952ba7f163c4a11628f55a4df523b3ef",
            "0x0000000000000000000000003324533837e165829b8e581b4f471125c9d8c66a",
            "0x000000000000000000000000e03a1074c86cfedd5c142c4f04f1a1536e203543"
          ],
          "data": "0x00000000000000000000000000000000000000000000000000001b33a8c592f5",
          "blockHash": "0x0ac64c2fd615f58799bdafb1afa5ebf1c2b91296ea6ffd92bb08dc8b9e733287",
          "blockNumber": "0x8bddad",
          "blockTimestamp": "0x68bff3f8",
          "transactionHash": "0xa2c307b5b5435188988f376913331a94fd34bd3b5de4bc09d538fd7025af29e3",
          "transactionIndex": "0x8f",
          "logIndex": "0xc2",
          "removed": false
        }
      ],
      "logsBloom": "0x00000400000000000000000000000000000000000000000000000000000000000000400000000000000000000000000000000100000000000000400000000000004000000000000000000028000000000000000000000000000000000000000000000000000000000000000080000000000000000000100000100010000000000040000001000000000010200000000000000000000000000000000000000000000024000000000000000000000000000000000000000000000000000000000000000002100000000002000000000400000000020000000000001000000000001000001000000000000000000000000004000004000000000000000000000000",
      "type": "0x2",
      "transactionHash": "0xa2c307b5b5435188988f376913331a94fd34bd3b5de4bc09d538fd7025af29e3",
      "transactionIndex": "0x8f",
      "blockHash": "0x0ac64c2fd615f58799bdafb1afa5ebf1c2b91296ea6ffd92bb08dc8b9e733287",
      "blockNumber": "0x8bddad",
      "gasUsed": "0x26d21",
      "effectiveGasPrice": "0x73f1a10",
      "from": "0x3324533837e165829b8e581b4f471125c9d8c66a",
      "to": "0x5de19fe5e05fd56882acd533ce303def8c5c5705",
      "contractAddress": null
    }
  ],
  "libraries": [],
  "pending": [],
  "returns": {},
  "timestamp": 1757410298577,
  "chain": 11155111,
  "commit": null
}