{
  "transactions": [
    {
      "hash": "0x85b80b54230c7400f9a6a669c4d0b260c28a17e89e35c2ae626862e82eb006fb",
      "transactionType": "CALL",
      "contractName": null,
      "contractAddress": "0xfff9976782d46cc05630d1f6ebab18b2324d6b14",
      "function": "approve(address,uint256)",
      "arguments": [
        "0x000000000022D473030F116dDEE9F6B43aC78BA3",
        "115792089237316195423570985008687907853269984665640564039457584007913129639935"
      ],
      "transaction": {
        "from": "0x3324533837e165829b8e581b4f471125c9d8c66a",
        "to": "0xfff9976782d46cc05630d1f6ebab18b2324d6b14",
        "gas": "0xf9d5",
        "value": "0x0",
        "input": "0x095ea7b3000000000000000000000000000000000022d473030f116ddee9f6b43ac78ba3ffffffffffffffffffffffffffffffffffffffffffffffffffffffffffffffff",
        "nonce": "0x10",
        "chainId": "0xaa36a7"
      },
      "additionalContracts": [],
      "isFixedGasLimit": false
    },
    {
      "hash": "0x4171a177eae89ab3664218d672dfd9ea77ff90cbd439d936b52bf54ba64d8fad",
      "transactionType": "CALL",
      "contractName": null,
      "contractAddress": "0xd98f9971773045735c62cd8f1a70047f81b9a468",
      "function": "approve(address,uint256)",
      "arguments": [
        "0x000000000022D473030F116dDEE9F6B43aC78BA3",
        "115792089237316195423570985008687907853269984665640564039457584007913129639935"
      ],
      "transaction": {
        "from": "0x3324533837e165829b8e581b4f471125c9d8c66a",
        "to": "0xd98f9971773045735c62cd8f1a70047f81b9a468",
        "gas": "0x107fc",
        "value": "0x0",
        "input": "0x095ea7b3000000000000000000000000000000000022d473030f116ddee9f6b43ac78ba3ffffffffffffffffffffffffffffffffffffffffffffffffffffffffffffffff",
        "nonce": "0x11",
        "chainId": "0xaa36a7"
      },
      "additionalContracts": [],
      "isFixedGasLimit": false
    },
    {
      "hash": "0x48cec748065376ae23caef0da639dfc6a327f61d38f4192d35acfd936ec46a3f",
      "transactionType": "CALL",
      "contractName": null,
      "contractAddress": "0x000000000022d473030f116ddee9f6b43ac78ba3",
      "function": "approve(address,address,uint160,uint48)",
      "arguments": [
        "0xfFf9976782d46CC05630D1f6eBAb18b2324d6B14",
        "0x5de19fE5E05fD56882ACd533cE303def8c5C5705",
        "1461501637330902918203684832716283019655932542975",
        "1759930824"
      ],
      "transaction": {
        "from": "0x3324533837e165829b8e581b4f471125c9d8c66a",
        "to": "0x000000000022d473030f116ddee9f6b43ac78ba3",
        "gas": "0x1110a",
        "value": "0x0",
        "input": "0x87517c45000000000000000000000000fff9976782d46cc05630d1f6ebab18b2324d6b140000000000000000000000005de19fe5e05fd56882acd533ce303def8c5c5705000000000000000000000000ffffffffffffffffffffffffffffffffffffffff0000000000000000000000000000000000000000000000000000000068e669c8",
        "nonce": "0x12",
        "chainId": "0xaa36a7"
      },
      "additionalContracts": [],
      "isFixedGasLimit": false
    },
    {
      "hash": "0xc62bc0b4807db804a3bdfa3ee36e870a0038eca2adc7c921fa7df7f490e6afaf",
      "transactionType": "CALL",
      "contractName": null,
      "contractAddress": "0x000000000022d473030f116ddee9f6b43ac78ba3",
      "function": "approve(address,address,uint160,uint48)",
      "arguments": [
        "0xD98f9971773045735C62cD8f1a70047f81b9a468",
        "0x5de19fE5E05fD56882ACd533cE303def8c5C5705",
        "1461501637330902918203684832716283019655932542975",
        "1759930824"
      ],
      "transaction": {
        "from": "0x3324533837e165829b8e581b4f471125c9d8c66a",
        "to": "0x000000000022d473030f116ddee9f6b43ac78ba3",
        "gas": "0x1110a",
        "value": "0x0",
        "input": "0x87517c45000000000000000000000000d98f9971773045735c62cd8f1a70047f81b9a4680000000000000000000000005de19fe5e05fd56882acd533ce303def8c5c5705000000000000000000000000ffffffffffffffffffffffffffffffffffffffff0000000000000000000000000000000000000000000000000000000068e669c8",
        "nonce": "0x13",
        "chainId": "0xaa36a7"
      },
      "additionalContracts": [],
      "isFixedGasLimit": false
    },
    {
      "hash": "0x7185cdb18ca43f424eaf5360a820e88abc2a63730f301d190d6db5afbcb2796a",
      "transactionType": "CALL",
      "contractName": null,
      "contractAddress": "0x5de19fe5e05fd56882acd533ce303def8c5c5705",
      "function": "modifyLiquidities(bytes,uint256)",
      "arguments": [
        "0x000000000000000000000000000000000000000000000000000000000000004000000000000000000000000000000000000000000000000000000000000000800000000000000000000000000000000000000000000000000000000000000002020d00000000000000000000000000000000000000000000000000000000000000000000000000000000000000000000000000000000000000000000000000020000000000000000000000000000000000000000000000000000000000000040000000000000000000000000000000000000000000000000000000000000020000000000000000000000000000000000000000000000000000000000000001a0000000000000000000000000d98f9971773045735c62cd8f1a70047f81b9a468000000000000000000000000fff9976782d46cc05630d1f6ebab18b2324d6b140000000000000000000000000000000000000000000000000000000000000bb8000000000000000000000000000000000000000000000000000000000000003c0000000000000000000000000000000000000000000000000000000000000000ffffffffffffffffffffffffffffffffffffffffffffffffffffffffffffff88000000000000000000000000000000000000000000000000000000000000007800000000000000000000000000000000000000000000000000071afd498d000000000000000000000000000000000000000000000000000000470de4df820000000000000000000000000000000000000000000000000001158e460913d000000000000000000000000000003324533837e165829b8e581b4f471125c9d8c66a000000000000000000000000000000000000000000000000000000000000018000000000000000000000000000000000000000000000000000000000000000000000000000000000000000000000000000000000000000000000000000000040000000000000000000000000d98f9971773045735c62cd8f1a70047f81b9a468000000000000000000000000fff9976782d46cc05630d1f6ebab18b2324d6b14",
        "1757338884"
      ],
      "transaction": {
        "from": "0x3324533837e165829b8e581b4f471125c9d8c66a",
        "to": "0x5de19fe5e05fd56882acd533ce303def8c5c5705",
        "gas": "0x9005c",
        "value": "0x0",
        "input": "0xdd46508f00000000000000000000000000000000000000000000000000000000000000400000000000000000000000000000000000000000000000000000000068bedd040000000000000000000000000000000000000000000000000000000000000300000000000000000000000000000000000000000000000000000000000000004000000000000000000000000000000000000000000000000000000000000000800000000000000000000000000000000000000000000000000000000000000002020d00000000000000000000000000000000000000000000000000000000000000000000000000000000000000000000000000000000000000000000000000020000000000000000000000000000000000000000000000000000000000000040000000000000000000000000000000000000000000000000000000000000020000000000000000000000000000000000000000000000000000000000000001a0000000000000000000000000d98f9971773045735c62cd8f1a70047f81b9a468000000000000000000000000fff9976782d46cc05630d1f6ebab18b2324d6b140000000000000000000000000000000000000000000000000000000000000bb8000000000000000000000000000000000000000000000000000000000000003c0000000000000000000000000000000000000000000000000000000000000000ffffffffffffffffffffffffffffffffffffffffffffffffffffffffffffff88000000000000000000000000000000000000000000000000000000000000007800000000000000000000000000000000000000000000000000071afd498d000000000000000000000000000000000000000000000000000000470de4df820000000000000000000000000000000000000000000000000001158e460913d000000000000000000000000000003324533837e165829b8e581b4f471125c9d8c66a000000000000000000000000000000000000000000000000000000000000018000000000000000000000000000000000000000000000000000000000000000000000000000000000000000000000000000000000000000000000000000000040000000000000000000000000d98f9971773045735c62cd8f1a70047f81b9a468000000000000000000000000fff9976782d46cc05630d1f6ebab18b2324d6b14",
        "nonce": "0x14",
        "chainId": "0xaa36a7"
      },
      "additionalContracts": [],
      "isFixedGasLimit": false
    }
  ],
  "receipts": [
    {
      "status": "0x1",
      "cumulativeGasUsed": "0xef69d4",
      "logs": [
        {
          "address": "0xfff9976782d46cc05630d1f6ebab18b2324d6b14",
          "topics": [
            "0x8c5be1e5ebec7d5bd14f71427d1e84f3dd0314c0f7b2291e5b200ac8c7c3b925",
            "0x0000000000000000000000003324533837e165829b8e581b4f471125c9d8c66a",
            "0x000000000000000000000000000000000022d473030f116ddee9f6b43ac78ba3"
          ],
          "data": "0xffffffffffffffffffffffffffffffffffffffffffffffffffffffffffffffff",
          "blockHash": "0xa41ca5f5f5af9313486145ae5b83bedd718b387894d8f20d9b303217f77903d5",
          "blockNumber": "0x8bc6e5",
          "blockTimestamp": "0x68bedcf8",
          "transactionHash": "0x85b80b54230c7400f9a6a669c4d0b260c28a17e89e35c2ae626862e82eb006fb",
          "transactionIndex": "0x6e",
          "logIndex": "0xa9",
          "removed": false
        }
      ],
      "logsBloom": "0x00000000000000000000000000000000000000000000000000000000000000000000000000000000000000000000000000000000800000000000000000200000004000000000000000004000000000000000000000000800000000000000000000000000000000000000000000000000000000000000000000000000000000000040000000000000000000200000000000000000000000000000000000000000020020000000000000000000000000000000000000000000000000000000000000000000000000000002000000000000000000000000000000000000000000000010001000000000000000000000000000000000000000000000000000000000",
      "type": "0x2",
      "transactionHash": "0x85b80b54230c7400f9a6a669c4d0b260c28a17e89e35c2ae626862e82eb006fb",
      "transactionIndex": "0x6e",
      "blockHash": "0xa41ca5f5f5af9313486145ae5b83bedd718b387894d8f20d9b303217f77903d5",
      "blockNumber": "0x8bc6e5",
      "gasUsed": "0xb4e0",
      "effectiveGasPrice": "0x2b08e6",
      "from": "0x3324533837e165829b8e581b4f471125c9d8c66a",
      "to": "0xfff9976782d46cc05630d1f6ebab18b2324d6b14",
      "contractAddress": null
    },
    {
      "status": "0x1",
      "cumulativeGasUsed": "0xf01e55",
      "logs": [
        {
          "address": "0xd98f9971773045735c62cd8f1a70047f81b9a468",
          "topics": [
            "0x8c5be1e5ebec7d5bd14f71427d1e84f3dd0314c0f7b2291e5b200ac8c7c3b925",
            "0x0000000000000000000000003324533837e165829b8e581b4f471125c9d8c66a",
            "0x000000000000000000000000000000000022d473030f116ddee9f6b43ac78ba3"
          ],
          "data": "0xffffffffffffffffffffffffffffffffffffffffffffffffffffffffffffffff",
          "blockHash": "0xa41ca5f5f5af9313486145ae5b83bedd718b387894d8f20d9b303217f77903d5",
          "blockNumber": "0x8bc6e5",
          "blockTimestamp": "0x68bedcf8",
          "transactionHash": "0x4171a177eae89ab3664218d672dfd9ea77ff90cbd439d936b52bf54ba64d8fad",
          "transactionIndex": "0x6f",
          "logIndex": "0xaa",
          "removed": false
        }
      ],
      "logsBloom": "0x00000000000000000000000000000000000000000000000000000000000000000000000000000000000000000000000000000000800000000000400000200000004000000000000000004000000000000000000000000800000000000000000000000000000000000000000000000000000000000000000000000000000000000000000000000000000000200000000000000000000000000000000000000000020000000000000000000000000000000000000000000000000000000000000000000000100000000000000000000000000000000000000000000000000000000010001000000000000000000000000000000004000000000000000000000000",
      "type": "0x2",
      "transactionHash": "0x4171a177eae89ab3664218d672dfd9ea77ff90cbd439d936b52bf54ba64d8fad",
      "transactionIndex": "0x6f",
      "blockHash": "0xa41ca5f5f5af9313486145ae5b83bedd718b387894d8f20d9b303217f77903d5",
      "blockNumber": "0x8bc6e5",
      "gasUsed": "0xb481",
      "effectiveGasPrice": "0x2b08e6",
      "from": "0x3324533837e165829b8e581b4f471125c9d8c66a",
      "to": "0xd98f9971773045735c62cd8f1a70047f81b9a468",
      "contractAddress": null
    },
    {
      "status": "0x1",
      "cumulativeGasUsed": "0xf0d907",
      "logs": [
        {
          "address": "0x000000000022d473030f116ddee9f6b43ac78ba3",
          "topics": [
            "0xda9fa7c1b00402c17d0161b249b1ab8bbec047c5a52207b9c112deffd817036b",
            "0x0000000000000000000000003324533837e165829b8e581b4f471125c9d8c66a",
            "0x000000000000000000000000fff9976782d46cc05630d1f6ebab18b2324d6b14",
            "0x0000000000000000000000005de19fe5e05fd56882acd533ce303def8c5c5705"
          ],
          "data": "0x000000000000000000000000ffffffffffffffffffffffffffffffffffffffff0000000000000000000000000000000000000000000000000000000068e669c8",
          "blockHash": "0xa41ca5f5f5af9313486145ae5b83bedd718b387894d8f20d9b303217f77903d5",
          "blockNumber": "0x8bc6e5",
          "blockTimestamp": "0x68bedcf8",
          "transactionHash": "0x48cec748065376ae23caef0da639dfc6a327f61d38f4192d35acfd936ec46a3f",
          "transactionIndex": "0x70",
          "logIndex": "0xab",
          "removed": false
        }
      ],
      "logsBloom": "0x00010400001000000000000000000000000000000000000000000000000000000000400000000000000000000000000000000800000000000000000000080000004000000000000000000000000000000000000000000000000000000000000000000000000000000000000000000000000000000000000000100000000000000020000000000000000000200000000000000000000000000000000000000000000000000000000000000000000000000000000000000000000000080000000000000000000000000000000001000000000000000000000040000000000000000000001000000000000000000000000000000000000000000000000000000400",
      "type": "0x2",
      "transactionHash": "0x48cec748065376ae23caef0da639dfc6a327f61d38f4192d35acfd936ec46a3f",
      "transactionIndex": "0x70",
      "blockHash": "0xa41ca5f5f5af9313486145ae5b83bedd718b387894d8f20d9b303217f77903d5",
      "blockNumber": "0x8bc6e5",
      "gasUsed": "0xbab2",
      "effectiveGasPrice": "0x2b08e6",
      "from": "0x3324533837e165829b8e581b4f471125c9d8c66a",
      "to": "0x000000000022d473030f116ddee9f6b43ac78ba3",
      "contractAddress": null
    },
    {
      "status": "0x1",
      "cumulativeGasUsed": "0xf193b9",
      "logs": [
        {
          "address": "0x000000000022d473030f116ddee9f6b43ac78ba3",
          "topics": [
            "0xda9fa7c1b00402c17d0161b249b1ab8bbec047c5a52207b9c112deffd817036b",
            "0x0000000000000000000000003324533837e165829b8e581b4f471125c9d8c66a",
            "0x000000000000000000000000d98f9971773045735c62cd8f1a70047f81b9a468",
            "0x0000000000000000000000005de19fe5e05fd56882acd533ce303def8c5c5705"
          ],
          "data": "0x000000000000000000000000ffffffffffffffffffffffffffffffffffffffff0000000000000000000000000000000000000000000000000000000068e669c8",
          "blockHash": "0xa41ca5f5f5af9313486145ae5b83bedd718b387894d8f20d9b303217f77903d5",
          "blockNumber": "0x8bc6e5",
          "blockTimestamp": "0x68bedcf8",
          "transactionHash": "0xc62bc0b4807db804a3bdfa3ee36e870a0038eca2adc7c921fa7df7f490e6afaf",
          "transactionIndex": "0x71",
          "logIndex": "0xac",
          "removed": false
        }
      ],
      "logsBloom": "0x00010400000000008000000000000000000000000000000000000000000000000000400000000000000000000000000000000000000000000000000000080000004000000000000000000000000000000000000000000000000000000000000000000000000000000000000000000000000000000000000000100000000000000020000000000000000000200000000000000000000000000000000000000000000008000000000000000000000000000000000000000000000000080000000000000000000000000000000000000000000000000000000040000000000000000000001000000010000000000000000000000000000000000000000000000400",
      "type": "0x2",
      "transactionHash": "0xc62bc0b4807db804a3bdfa3ee36e870a0038eca2adc7c921fa7df7f490e6afaf",
      "transactionIndex": "0x71",
      "blockHash": "0xa41ca5f5f5af9313486145ae5b83bedd718b387894d8f20d9b303217f77903d5",
      "blockNumber": "0x8bc6e5",
      "gasUsed": "0xbab2",
      "effectiveGasPrice": "0x2b08e6",
      "from": "0x3324533837e165829b8e581b4f471125c9d8c66a",
      "to": "0x000000000022d473030f116ddee9f6b43ac78ba3",
      "contractAddress": null
    },
    {
      "status": "0x1",
      "cumulativeGasUsed": "0xf7bb5b",
      "logs": [
        {
          "address": "0x5de19fe5e05fd56882acd533ce303def8c5c5705",
          "topics": [
            "0xddf252ad1be2c89b69c2b068fc378daa952ba7f163c4a11628f55a4df523b3ef",
            "0x0000000000000000000000000000000000000000000000000000000000000000",
            "0x0000000000000000000000003324533837e165829b8e581b4f471125c9d8c66a",
            "0x0000000000000000000000000000000000000000000000000000000000000001"
          ],
          "data": "0x",
          "blockHash": "0xa41ca5f5f5af9313486145ae5b83bedd718b387894d8f20d9b303217f77903d5",
          "blockNumber": "0x8bc6e5",
          "blockTimestamp": "0x68bedcf8",
          "transactionHash": "0x7185cdb18ca43f424eaf5360a820e88abc2a63730f301d190d6db5afbcb2796a",
          "transactionIndex": "0x72",
          "logIndex": "0xad",
          "removed": false
        },
        {
          "address": "0xe03a1074c86cfedd5c142c4f04f1a1536e203543",
          "topics": [
            "0xf208f4912782fd25c7f114ca3723a2d5dd6f3bcc3ac8db5af63baa85f711d5ec",
            "0xe4d71c27eb09d89e5f11945417505181a7e3724bddbee60e42efc49a2a7f022c",
            "0x0000000000000000000000005de19fe5e05fd56882acd533ce303def8c5c5705"
          ],
          "data": "0xffffffffffffffffffffffffffffffffffffffffffffffffffffffffffffff88000000000000000000000000000000000000000000000000000000000000007800000000000000000000000000000000000000000000000000071afd498d00000000000000000000000000000000000000000000000000000000000000000001",
          "blockHash": "0xa41ca5f5f5af9313486145ae5b83bedd718b387894d8f20d9b303217f77903d5",
          "blockNumber": "0x8bc6e5",
          "blockTimestamp": "0x68bedcf8",
          "transactionHash": "0x7185cdb18ca43f424eaf5360a820e88abc2a63730f301d190d6db5afbcb2796a",
          "transactionIndex": "0x72",
          "logIndex": "0xae",
          "removed": false
        },
        {
          "address": "0xd98f9971773045735c62cd8f1a70047f81b9a468",
          "topics": [
            "0xddf252ad1be2c89b69c2b068fc378daa952ba7f163c4a11628f55a4df523b3ef",
            "0x0000000000000000000000003324533837e165829b8e581b4f471125c9d8c66a",
            "0x000000000000000000000000e03a1074c86cfedd5c142c4f04f1a1536e203543"
          ],
          "data": "0x00000000000000000000000000000000000000000000000000000ae176b56dfc",
          "blockHash": "0xa41ca5f5f5af9313486145ae5b83bedd718b387894d8f20d9b303217f77903d5",
          "blockNumber": "0x8bc6e5",
          "blockTimestamp": "0x68bedcf8",
          "transactionHash": "0x7185cdb18ca43f424eaf5360a820e88abc2a63730f301d190d6db5afbcb2796a",
          "transactionIndex": "0x72",
          "logIndex": "0xaf",
          "removed": false
        },
        {
          "address": "0xfff9976782d46cc05630d1f6ebab18b2324d6b14",
          "topics": [
            "0xddf252ad1be2c89b69c2b068fc378daa952ba7f163c4a11628f55a4df523b3ef",
            "0x0000000000000000000000003324533837e165829b8e581b4f471125c9d8c66a",
            "0x000000000000000000000000e03a1074c86cfedd5c142c4f04f1a1536e203543"
          ],
          "data": "0x00000000000000000000000000000000000000000000000000000ae176b56dfc",
          "blockHash": "0xa41ca5f5f5af9313486145ae5b83bedd718b387894d8f20d9b303217f77903d5",
          "blockNumber": "0x8bc6e5",
          "blockTimestamp": "0x68bedcf8",
          "transactionHash": "0x7185cdb18ca43f424eaf5360a820e88abc2a63730f301d190d6db5afbcb2796a",
          "transactionIndex": "0x72",
          "logIndex": "0xb0",
          "removed": false
        }
      ],
      "logsBloom": "0x00000400000000000000000000000000000000000000000000000000000000000000400000000000000000000000000000000100000000000000400000040000004000000000000000000028000000000000000000040000000000000000000000000000020000000000000080000800000000000000100000100010000000000040000001000000000010200000000000000000000000000000000000000000000024000000000000000000000000000000000000000000000000000000000000000002100000000002000000000400000000020000000000001080000060001000001000000000000000000000080004000004000000000000000000000000",
      "type": "0x2",
      "transactionHash": "0x7185cdb18ca43f424eaf5360a820e88abc2a63730f301d190d6db5afbcb2796a",
      "transactionIndex": "0x72",
      "blockHash": "0xa41ca5f5f5af9313486145ae5b83bedd718b387894d8f20d9b303217f77903d5",
      "blockNumber": "0x8bc6e5",
      "gasUsed": "0x627a2",
      "effectiveGasPrice": "0x2b08e6",
      "from": "0x3324533837e165829b8e581b4f471125c9d8c66a",
      "to": "0x5de19fe5e05fd56882acd533ce303def8c5c5705",
      "contractAddress": null
    }
  ],
  "libraries": [],
  "pending": [],
  "returns": {},
  "timestamp": 1757338875071,
  "chain": 11155111,
  "commit": null
}